:1000000000800020B9050000B5050000B50500001E
:1000100000000000000000000000000000000000E0
:10002000000000000000000000000000B505000016
:100030000000000000000000B5050000C501000040
:10004000B5050000B5050000B5050000B5050000C8
:10005000B5050000B5050000B5050000B5050000B8
:10006000B5050000B5050000B5050000B5050000A8
:10007000B5050000B5050000B5050000B505000098
:10008000B5050000B5050000B5050000B505000088
:10009000B5050000B5050000B5050000B505000078
:1000A000B5050000B5050000B5050000B505000068
:1000B000B505000000B595B000F0F6F9FA21364B11
:1000C0008900186804F0AAFF802301385B04984275
:1000D0000DD2C021314A090650603148036A1B0223
:1000E0001B0A0B43036200239360073313602D4800
:1000F00001F020FA0023E121029303330193083336
:100100000A224902284800930A3B00F071F8274868
:1001100000F060F82648244900F054F9FA23402101
:10012000214A9B0004A800F05FF9002828D021484C
:1001300004A901F08FF920481B4900F043F9FA2384
:100140004021194A9B0004A800F04EF900281FD056
:10015000184804A901F07EF91848134900F032F953
:10016000FA234021104A9B0004A800F03DF9002822
:100170000AD0104804A901F06DF9002015B000BDA7
:100180000F4801F0D7F9D6E70D4801F0D3F9F4E7AD
:100190000B4801F0CFF9DFE70400002010E000E099
:1001A00000ED00E07877000000100042B80B00007E
:1001B000CC77000080770000A0770000B4770000C3
:1001C00090770000024A1368013313607047C046FD
:1001D000D0010020054A116813685B1A984204D9BF
:1001E000C04613685B1A8342FAD37047D0010020DF
:1001F000F8B5DE4657464E464546E0B59B460BAB46
:100200001B78040099465D4B8A46984200D192E0E3
:100210005B4B984212D05B4B984200D199E05A4B0D
:10022000984200D19CE0594B984200D18AE0584B4B
:10023000984200D19BE08023DB0105E00821554A6C
:10024000136A0B431362544B544A53805378DB09AF
:10025000FCD1534B5380514A5378DB09FCD14A25DA
:10026000012702210F264F4A0800535DB0463B4349
:100270005355535D8B4353553331535CB3430C3E5D
:10028000334353544B23D65C3E43D654D65C06438B
:100290004046D654565C06403020844660460643AD
:1002A00002205654565D3E435655565D864356557C
:1002B0004646555CB5430C3E35435554D55C3D43ED
:1002C000D554D55C05434046D554535C184063462D
:1002D000184350540122236813432360E369DB076A
:1002E000FCD45B46C0214A46C02089021B0412058B
:1002F000800302400B4013432B4A13432360616089
:10030000E3695B07FCD4294B1A6853461801101A9D
:100310000023010C000405F035F80222A0812368B7
:1003200013432360E3699B07FCD4F0BCBB46B24691
:10033000A946A046F8BD0421164A136A0B4313626E
:100340001B4B81E74021134A136A0B431362194B7D
:100350007AE710210F4A136A0B431362164B73E7B7
:1003600020210C4A136A0B431362144B6CE7802163
:10037000084A136A0B431362114B65E700080042F9
:10038000000C00420010004200140042001800421D
:10039000001C00420004004015400000000C00401A
:1003A000134000000044004104000040040000200D
:1003B00014400000184000001640000017400000E4
:1003C0001940000070B5050000780C0000280AD024
:1003D00001F050F82A78237EDB07FCD52285687867
:1003E00001350028F4D170BD8446481EF0B5C646DC
:1003F000804660461D00104B002600B51C68471E55
:10040000012904D10EE01968091BA9420ED2117E00
:100410004907C80F0029F6DA118D0136B95546454E
:10042000F5D1B44400236246137001E06346985549
:10043000300080BCB846F0BDD001002010B501F0FE
:10044000E9F9092303600120404210BD80239B018C
:1004500000204B607047C046012070470020704765
:1004600010B501F0D7F9162303600120404210BDFA
:10047000013884B0012809D8012302910193039225
:10048000052001A9ABBE101A04B0704701204042FC
:10049000FAE7C0460300024A1068C31813607047A9
:1004A0000000002030BFFDE7822202212E4B1A609F
:1004B0002E4B2F4A1A801A880A431A8002222D498D
:1004C0000B681A42FCD0032204212B4BFF311A6027
:1004D0002A4A11602A4A1A602A4A13785BB2002B12
:1004E000FBDB8622284BD2011A80102221490B689F
:1004F0001A42FCD00222254B1E491A800E320B688C
:100500001A42FCD0224A234B1A491A6010220B6867
:100510001A42FCD0204B17491A68204B92051B68E1
:10052000920D9B0E9B0213431D4A136010220B6811
:100530001A42FCD0154A1B4B11880B431380102222
:100540000C490B681A42FCD080220C4B52001A60F6
:10055000154A094B1A600B4A13785BB2002BFBDB80
:10056000124B134A1A6070470440004114080040BF
:100570006C0700000C080040040C0040080C004010
:1005800003050300010C0040020C00402408004059
:10059000B905FF7D2C0800402860800024608000A1
:1005A0002808004004080000000723000400002081
:1005B000006CDC0230BFFDE710B5FFF775FF0F4898
:1005C0000F4B984207D2013B1A1A920801320D498B
:1005D000920001F033F90C480C4B984207D2013BD2
:1005E0001A1A920801320021920001F0B9F8084B62
:1005F000084A9360FFF75EFD30BFFDE70000002072
:10060000D0010020BC7B0000D0010020200300208E
:100610000000000000ED00E0F0B51F000023160010
:100620008BB09F4204DA802109067B181F002D231E
:10063000129A149D1370202303229D43462D07D048
:100640002B00453B59424B411099013ACB1810936E
:1006500009AB049308AB0393139B00920293109B86
:10066000320001933B0001F083F90400472D1BD1B8
:10067000119BDB0711D5109BC318079300220023A1
:100680003000390004F050FE002801D0079B099388
:100690003022099B07998B4220D32000099B159A91
:1006A0001B1B13600BB0F0BD109BC3180793462DA6
:1006B000E4D10378302B0CD1002200233000390024
:1006C00004F032FE002804D10123109A9B1A139AD9
:1006D0001360139B079A1B68D318CEE7591C099126
:1006E0001A70D6E7F0B52B2385B005000C1E0270FA
:1006F00001DA4C4202336B70092C2EDD02ABDE1D99
:1007000020000A2104F0FAFD37003031013E2000BC
:1007100031700A21019404F00BFD019B0400632B4E
:10072000EEDCBA1E30341470AC1C1300210002A899
:10073000073098420CD802AB07330020934203D312
:10074000093002ABC018C01B0019401B05B0F0BD3A
:100750001878013308700131E9E73023E418AB70F1
:10076000281DEC70F1E70000F0B597B00C001C9D5F
:100770000A920B93099000F0FBFF036818000F9397
:1007800001F065F80023072210901493237E0E9346
:10079000236811932B68073393430122C0CB2B604E
:1007A0007B005B080D930C96A664E7640C980D998A
:1007B000A44B524206F06AFE002831D10C980D99E4
:1007C0000122A04B524204F0BFFD002828D1002294
:1007D00000233000390004F0ADFD002803D02300D1
:1007E0002D2243331A70984B0C930E9B472B01D844
:1007F000964B0C9303230025119A236101339A43EE
:1008000022600B9B2100009309980A9B15AA00F017
:10081000D9F9013000D099E00120404217B0F0BD75
:1008200032003B003000390006F030FE00280CD0CA
:10083000002F03DA23002D2243331A70844B0C93CC
:100840000E9B472BD6D8834BD3E720220E9D63689F
:1008500095435A1C44D1073363608023119ADB000F
:10086000134300222360069214AA05920E9A0AA945
:10087000049213AA039223225218029201936368EE
:100880003200009309983B00FFF7C6FE13990C90C5
:10089000472D2BD1CB1C02DB63688B4244DA0E9EC2
:1008A000023EF3B20E9320000E9A0139503013919C
:1008B000FFF718FF149A050013182361012A02DCC0
:1008C0002268D20701D50133236123230AAA9B188A
:1008D0001B78002B95D023002D2243331A7090E70C
:1008E000472DBAD1002BB8D10133B5E70E9B652B4C
:1008F000D9D90E9B662B19D16368002909DD2161C6
:10090000002B02D12268D2070BD501335B1823617B
:1009100007E0002B03D101222068104200D09A1C6E
:1009200022610025A165D0E767230E93149B8B42BB
:1009300005DC23682161DB07F3D54B1CE7E70122C7
:10094000002901DC9218521A9B18E0E7226853052F
:1009500008D423690C9A0A9909980B9DA84701307D
:1009600029D159E70E9B652B00D8D6E0A06CE16C2D
:100970000022002304F0D8FC002833D00123364A9B
:100980000A9909980B9DA847013000D144E7149EAD
:10099000139BB34202DB2368DB070CD50B9D109B36
:1009A0000F9A0A990998A8470025013000D133E72A
:1009B000731EAB420ADC23689B0700D500E1159B40
:1009C000E068984200DB29E7180027E722000123AE
:1009D0000A9909980B9F1A32B847013000D11BE7DA
:1009E0000135E5E7139B002B38DC01231A4A0A99ED
:1009F00009980B9DA847013000D10DE7149E139B69
:100A0000334302D12368DB07D5D50B9D109B0F9A8A
:100A10000A990998A8470025013000D1FCE6139BEC
:100A20005B42AB4201DC330094E7220001230A99C8
:100A300009980B9F1A32B847013000D1ECE6013516
:100A4000EDE7C046FFFFEF7FD3770000CF770000D0
:100A5000DB770000D7770000DF770000149EA76DDA
:100A6000B74200DD3700002F2FDCFB430025DB17EA
:100A70003B400E93A76D0E9BFB1AAB422EDC139BE3
:100A80009E4237DC2368DB0734D4139DF31B751BB0
:100A90009D4200DD1D00002D35DCEB430027DB17F8
:100AA0001D400C95139B0C9AF31A9B1ABB4200DC59
:100AB00081E7220001230A9909980B9D1A32A84761
:100AC000013000D1A8E60137ECE73B000C9A0A9907
:100AD00009980B9DA8470130C7D19DE6220001234C
:100AE0000A9909980B9F1A32B847013000D193E652
:100AF0000135BFE7109B0F9A0A9909980B9DA847EB
:100B00000130C2D188E60C9B0A99DA1909982B00AA
:100B10000B9FB8470130C0D17EE6149E012E02DC47
:100B200001231A4239D001230C9A0A9909980B9F84
:100B3000B847013000D16FE6109B0F9A0A990998C7
:100B40000B9FB847013000D166E6A06CE16C731EC4
:100B50000E930022002304F0E7FB00281BD10C9A1F
:100B60000E9B01320A9909980B9EB04701300ED1B5
:100B700052E6220001230A9909980B9E1A32B047C7
:100B8000013000D148E601370E9B9F42F1DB220085
:100B90002B005032DFE60027F6E70C9AE2E722004E
:100BA00001230A9909980B9E1932B047013000D1F0
:100BB00032E60135E368159A9B1AAB42EFDCFEE69C
:100BC0000025F7E7F7B5160001938A680B690C005A
:100BD0000090934200DA130022003360433212780F
:100BE000002A01D00133336023689B0602D53368A5
:100BF000023333602268062315001D401A4227D0B5
:100C0000230043331B785A1E93412268920630D446
:100C1000220001990098089D4332A847013025D051
:100C20000622236800251340042B05D13368E568AC
:100C3000ED1AEB43DB171D40A3682269934201DDE7
:100C40009B1AED180026B54220D1002010E0013596
:100C5000E36832689B1AAB42D2DD2200012301997E
:100C60000098089F1932B8470130F0D10120404266
:100C7000FEBD3020E1184331087021005A1C453177
:100C80000978A218433202331170C1E72200012310
:100C900001990098089F1A32B8470130E6D0013612
:100CA000D1E70000F0B58BB006920A0043320793FB
:100CB000059003920A7E0C00109B782A09D8622ABC
:100CC0000BD8002A00D1BAE07A490491582A00D101
:100CD0008EE0250042352A7022E010006338152886
:100CE000F7D804F091F916001F00F6FFF6FFF6FFA3
:100CF000F6FF1F00F6FFF6FFF6FFF6FF9F00360037
:100D00007E00F6FFF6FFB000F6FF3600F6FFF6FFB6
:100D1000820025001A684235111D196013682B7076
:100D200001239EE018680968021D0D060BD50668B0
:100D30001A60002E03DA2D23039A764213705D4B5E
:100D40000A27049318E006681A604906F1D536B2FE
:100D5000EFE70868196840C9050602D4400600D5C7
:100D6000B6B21960534B0A2704936F2A00D1023F91
:100D70002300002243331A706368A360002B06DB54
:100D800004212268039D8A43226033430CD0039DD3
:100D90003000390004F0C8F9049B013D5B5C2B7006
:100DA000330006009F42F3D9082F09D12368DB07DF
:100DB00006D5626823699A4202DC3023013D2B701C
:100DC000039B5B1B2361079B210000930598069BF7
:100DD00009AAFFF7F7FE013048D1012040420BB0CD
:100DE000F0BD202209680A4322607822324904912A
:100DF000210045310A701968226840C9100602D4E2
:100E0000500600D5B6B21960D30702D5202313438C
:100E10002360002E01D01027AAE7202223689343E5
:100E20002360F8E71A680D68101D49691860136897
:100E30002E0601D5196002E06D06FBD5198000234E
:100E4000039D2361BFE71A68111D19601568002111
:100E50002800626800F0E7FC002801D0401B6060B9
:100E6000636823610023039A1370ACE72A002369A7
:100E700006990598079DA8470130AED023689B07C7
:100E800015D4099BE0689842A9DA1800A7E7220068
:100E9000012306990598079E1932B04701309CD06E
:100EA0000135E368099A9B1AAB42F0DCE9E70025BB
:100EB000F7E7C046E1770000F2770000F0B58BB0AD
:100EC00016000390AE22002007938B680C00591E79
:100ED00052000690914205D95E3BFF3B06935E238C
:100EE000FF33A360F0232268DB0013432360230059
:100EF00000251C331F000493029509950895019560
:100F00000595A268002A0AD033681B784E2B44D876
:100F10001800402B2CD82B38C1B20E292AD9019B9E
:100F2000002B03D02368A64A13402360029B013B99
:100F3000012B00D9FFE0BE256D00049B9F4200D924
:100F4000EFE001200BB0F0BD180061380D28E6D8A5
:100F500004F05AF88900E5FFE5FFE5FFBC00A800B2
:100F6000E5FFE5FF8F00E5FFE5FFE5FFE5FF6B002F
:100F70004138EBE70E28D2D804F046F84F00D1FFF5
:100F80004F009E00D1FF210041004100410041007F
:100F9000410041004100410041006E2B0AD8602B06
:100FA000D2D8542B00D182E0592BB8D1072DB6D11D
:100FB00008252FE0742B7AD0792BF7D0AFE7216882
:100FC000C8051CD580239943019B216001330193FF
:100FD000069B002B03D0013B01320693A260A3685D
:100FE000013BA3602369013323617368013B736094
:100FF000002B00DC8BE033680133336081E7029A19
:101000005119002900D08AE70D0022686D4802912D
:10101000024022603B700137E1E7802122680A42EA
:1010200000D17CE78A432260F4E7029A002A0FD1BC
:10103000019A002A0FD12268E0211000C90008405F
:10104000884208D160490A40226001220292E1E709
:10105000029A022A59D0012D02D0042D00D05EE759
:101060000135EDB2D6E7029A012A00D057E70222F5
:10107000ECE7002D10D1019A002A00D052E7226837
:10108000E0211000C9000840884200D017E14E4915
:1010900001350A402260BDE7FD21EA1E0A4200D068
:1010A0003DE7DDE7022D00D039E70325B2E7062D45
:1010B00000D034E70725ADE72268910500D42EE77C
:1010C00042490A402260019A0592A3E7A0218020AC
:1010D0002268C9001140C000814206D0024200D1FE
:1010E0001DE70199002900D1E9E0910504D4019997
:1010F00005980997091A089133490A40C021490007
:101100000A4322600022019284E703229EE7C02363
:101110005B003100E35803989847002800D1F0E6BF
:10112000FDE6013F635932003978039898472369F7
:10113000013B236101E76B1E062B0ED80297022D9F
:1011400020D9EB1BDBB20693029B069A9B18DBB2FD
:10115000032B27D1033DEDB27F1B2368DA0552D55F
:101160005B0535D5BE256D00049B9F4200D8E8E69F
:10117000013F635932003978039898472369013B4E
:101180002361F1E7BE256D00049B9F4200D8D8E69D
:10119000013F635932003978039898472369013B2E
:1011A0002361F1E7029B3200013B19780293BE23D1
:1011B0005B00E358039898472369013B2361C3E729
:1011C000FFFEFFFF7FFEFFFF7FF8FFFF7FFDFFFFBA
:1011D00023697D1E2978013B236165290CD04529AF
:1011E0000AD0BE235B00E358320003989847236976
:1011F000BD1E013B29782361BE235B003200E3580A
:10120000039898472F00216810230A001A401942BA
:1012100001D0002096E6C0213A702368C9000B4037
:101220008021C9008B4226D1059B019A93420CD0A4
:101230009A1A23007033FF339F4202D327006F377F
:10124000FF3738001F4900F07FF900220499039806
:1012500002F06CFD079B0F001B68216806001A1D39
:10126000880715D507990A601B681E605F60E368F0
:101270000133E360CDE7089B002BE6D0099B039880
:10128000591C0A2302F0E4FD089B099FC21AD0E70B
:101290004907E7D4079930000A601D6832003B0017
:1012A000390006F0F3F8002804D0074800F0D6FA19
:1012B0002860DCE73000390006F098F9F8E70023F1
:1012C000019333E603780000EC780000002310B5AA
:1012D000040003604360836081814366C2810361CF
:1012E00043618361190008225C3000F039FA0B4B2E
:1012F000246263620A4BA3620A4BE3620A4B2363D4
:101300000A4B9C4205D00A4B9C4202D0094B9C429E
:1013100003D12000583000F083FA10BD8D15000075
:10132000B5150000ED15000019160000D4010020CD
:101330003C020020A402002010B5034A03490448DF
:1013400000F06CF810BDC04608000020CD4400003D
:101350001800002041680B4B10B50400994201D0E1
:1013600003F0B4F8A168084B994202D0200003F0C2
:10137000ADF8E168054B994202D0200003F0A6F8D1
:1013800010BDC046D40100203C020020A402002071
:1013900010B5094B094A04211A6009480022FFF7D9
:1013A00095FF012209210748FFF790FF0222122131
:1013B0000548FFF78BFF10BD0C0300203913000018
:1013C000D40100203C020020A402002010B50248F5
:1013D00000F027FA10BDC0461503002010B50248E2
:1013E00000F020FA10BDC0461503002010B504001F
:1013F000FFF7ECFF236A002B02D0FFF7EFFF10BDD1
:10140000044B2362044B1B68002BF6D1FFF7C0FF8F
:10141000F3E7C046551300000C030020F7B5140095
:10142000002600900191A5686768013F04D52468F3
:10143000002CF8D13000FEBDAB89012B08D90E225B
:10144000AB5E013304D029000098019B9847064306
:101450006835EAE70FB407B5054904AB086804CB63
:101460008168019302F088FE03B008BC04B01847FD
:101470001400002010B5034B01001868826803F0C7
:10148000B4F810BD14000020036A70B505000E000A
:101490008468002B01D1FFF7A9FF636EDB0705D439
:1014A000A3899B0502D4A06D00F0BBF9A3891B079B
:1014B00002D52369002B1FD12100280000F0F4F889
:1014C000002819D001256D42636EDB0705D4A3897E
:1014D0009B0502D4A06D00F0A5F9280070BD01366F
:1014E000A360002B04DAA269934216DB0A2914D008
:1014F00023685A1C22601970A3683178013B0029C7
:10150000EDD1A360002B0FDA220028000A3100F091
:1015100089F80130D6D00A25D6E72200280000F04D
:1015200081F80130E8D1CDE723685A1C22600A22F5
:101530001A70F0E710B5034B01001868FFF7A4FF1D
:1015400010BDC046140000200EB410B500249DB09C
:10155000029006900A481FAB07900490094804CBFC
:101560000590094802A9006801934C6602F0D8FC76
:10157000029B1C701DB010BC08BC03B01847C046CD
:10158000FFFFFF7F0802FFFF1400002070B50C0072
:101590000E25495F00F016F9002803DB636D1B1868
:1015A000636570BDA389024A1340A381F9E7C04671
:1015B000FFEFFFFFF8B51F008B8905000C00160038
:1015C000DB0505D50E23C95E0022022300F0E6F8F4
:1015D000A389054A28001340A38132000E23E15E4F
:1015E0003B0000F003F9F8BDFFEFFFFF70B50C0002
:1015F0000E25495F00F0D2F80C22A35E421C03D1F5
:10160000044A1340A38170BD802252011343A38179
:101610006065F8E7FFEFFFFF10B50E23C95E00F02D
:10162000ABF810BDF8B506000D001400002804D07A
:10163000036A002B01D1FFF7D9FEA369A360A38938
:101640001B0702D52369002B09D12100300000F0CF
:101650002BF8002803D001256D422800F8BD23692E
:101660002068EFB2C01A6369EDB2834205DC210045
:10167000300002F02BFF0028EDD1A3680130013BC0
:10168000A36023685A1C22601F706369834204D0E0
:10169000A389DB07E1D50A2DDFD12100300002F05C
:1016A00015FF0028D9D0D6E72C4B70B50500186877
:1016B0000C00002804D0036A002B01D1FFF796FE2E
:1016C0000C22A35E1A0722D4DA0607D409222A6064
:1016D000373201201343A381404270BD5A0713D50E
:1016E000616B002908D023004433994202D02800BE
:1016F00000F02AFF002363632422A389934300227E
:10170000626022691BB2226008221343A38122690E
:10171000002A0AD1A0218022890092000B40934226
:1017200003D02100280002F027FF0C23E25E0121F4
:1017300013000B400A420CD00023A36063695B4294
:10174000A361002023698342C7D11306C5D5402376
:10175000BFE7910700D46369A360F2E7140000209B
:1017600003008218934200D1704719700133F9E7E2
:101770000048704754010020002370B5064D040056
:1017800008002B60FEF75AFE431C03D12B68002B88
:1017900000D0236070BDC0461003002070B5040067
:1017A000080011001A000023054D2B60FEF756FEBD
:1017B000431C03D12B68002B00D0236070BDC046B2
:1017C0001003002070B50400080011001A00002367
:1017D000054D2B60FEF744FE431C03D12B68002B04
:1017E00000D0236070BDC0461003002070B5040017
:1017F000080011001A000023054D2B60FEF738FE8B
:10180000431C03D12B68002B00D0236070BDC04661
:1018100010030020014B18687047C04614000020D8
:10182000704770477047C9B28218904201D10020BA
:10183000704703788B42FBD00130F6E7002310B5E8
:101840009A4200D110BDCC5CC4540133F8E70023A8
:10185000C25C0133002AFBD1581E70470048704714
:101860000000C07FF0B503690C6989B00390069150
:101870000020A34263DB0B00013C1433A50004935A
:101880005B190593039B143301935D19059B2F6826
:101890001E6838000136310003F0C0FB0290B742E9
:1018A00027D3049B00279C46019E0797624608CADF
:1018B00030689446029A99B251431B0C5343C9199C
:1018C0000A0C9B1889B282B2521A07991F0C52183F
:1018D000000C9BB21114C31A5B18191492B21B04AA
:1018E000134308C6059B07916345DFD22B68002B85
:1018F0002BD00699039801F005FA00281EDB00267C
:10190000019D049901C92B6887B29AB2D21B921922
:10191000000C1B0C1B1A10141B181E1492B21B0473
:10192000134308C5059B8B42ECD2019AA300D31840
:101930001A68002A14D0029B01330293029809B05E
:10194000F0BD2B68002B04D1013C019B043DAB4250
:10195000F7D3039B1C61CCE71A68002A04D1013C31
:10196000019A043B9A42F7D3039B1C61E3E7000012
:10197000F0B514001D00C2699DB010941195259F0B
:101980000290002A10D1102000F028FE029B021EB7
:10199000D86104D1EF21C04BC04802F0BBFE002348
:1019A000436083600360C360116800290BD001238A
:1019B0005268029893404A608B6000F00DFF00224D
:1019C000029BDB691A602E1E1DDA01236E00DE40C9
:1019D0003B601196B24BB24A3340934216D1B14BA1
:1019E000249A3603360B1360264301D100F07DFDA7
:1019F000AD4B269A0593002A02D0AC4B269A136071
:101A000005981DB0F0BD00233B60E3E7109A119BE1
:101A10000C920D930C980D990022002303F084FC86
:101A2000071E0BD00123249A1360269B002B02D0A3
:101A30009F4B269A13609F4B0593E1E71AAB0193E6
:101A40001BAB009302980C9A0D9B01F087FA1A9B2E
:101A50000490310D059300D17BE00D9B19971A037B
:101A6000954B120B1343954A8E180C980D9919003B
:101A70000022934B05F0E8F8924A934B04F02CFEB9
:101A8000924A934B03F0D2FD040030000D0005F0A4
:101A900055FD904A904B04F01FFE02000B00200001
:101AA000290003F0C3FD04000D0005F00FFD002226
:101AB000039000232000290003F03CFC00280BD0F9
:101AC000039805F03BFD2B00220003F02DFC434260
:101AD0005841039B1B1A039301231393039B162B5B
:101AE00010D80C980D99039A7C4BD2009B181A6859
:101AF0005B6803F01FFC002847D0039B013B039366
:101B000000231393059B9E1B00230693731E03D58E
:101B10000122931B069300230A93039B002B36DBC1
:101B2000039A0A9B944663440A93002312920E93ED
:101B3000229B0124092B61D8052B02DD0024043BE4
:101B40002293229B981E032862D803F053FA535520
:101B50003629059B1B9FDF19614BFA18202A0FDDE0
:101B600040239B1A9E405F4B3000FB18DC40204313
:101B700005F018FD01225C4B7E1ECB18199276E70A
:101B8000202320009B1A9840F2E71390BAE7069BA7
:101B9000039A9B1A069353420E9300231293C7E7AE
:101BA0000123239A0F939446039B63440B930133C1
:101BB0000893002B08DC012306E001230F93239BED
:101BC000002B29DD0B930893029A0021D06904228F
:101BD000150014354E1C9D4223D94160029800F037
:101BE000B9FD059000281FD1B021404B2B48059A24
:101BF000FF31D2E60023E1E70023D2E700230F9470
:101C00002293013B00220B93089313332392DBE7CB
:101C100001230F93023BF5E701231A000B9308936E
:101C2000F4E731005200D3E7029B059ADB691A60A2
:101C3000089B0E2B00D9DEE0002C00D1DBE0039BDB
:101C4000002B68DD0F21039A244B0A40D2009B1819
:101C50001E685F68039B02251C110C9A0D9B149251
:101C60001593039BDB050AD5214B0C401A6A5B6A6E
:101C70000C980D9904F0FAF81490159101351C4B4D
:101C80000993002C36D11498159932003B0004F0CA
:101C9000EDF806000F005BE0157800002C780000DE
:101CA0000000F07F0F27000011780000147800007A
:101CB000E0770000DF7700000000F03F01FCFFFF4D
:101CC0000000F83F61436F63A787D23FB3C8608BC2
:101CD000288AC63FFB799F501344D33F58790000B0
:101CE0003204000012040000000010FE58780000CA
:101CF0003079000001231C4209D0ED18099B300007
:101D00001A685B68390004F0E7FC06000F00099BC5
:101D100064100833B4E7039B02250C9E0D9F002B33
:101D200016D00F225C422240D24BD2009B183000CA
:101D30001A685B68390004F0CFFCCF4B06000993AA
:101D40000F0000232411002C00D098E0002BA0D11C
:101D5000139B002B00D1A1E0002230003900C74BBB
:101D600003F0E8FA002800D198E0089B002B00D18E
:101D700094E00B9B002B3EDD039B3000013B3900C0
:101D800009930022BE4B04F0A7FC06000F000B9C39
:101D90000135280005F0D2FB32003B0004F09CFC2A
:101DA0000022B84B03F042FCB74B14901591CB18AE
:101DB0001593149A159B16921793002C72D100223A
:101DC00030003900B14B04F03FFF169A179B060014
:101DD0000F0003F0C3FA002800D0AAE2802000061A
:101DE00084461599300061440B00149A390003F0C1
:101DF000A1FA002826D11B9B002B00DA69E1039A87
:101E00000E2A00DD65E19B4BD2009B185C681B68C5
:101E100006930794239B002B00DBE4E0089B002B38
:101E200000DDE0E00ED1069807990022974B04F000
:101E300053FC02000B000C980D9903F085FA002862
:101E400000D179E200263700239B059CDB430993F0
:101E5000039700273100029800F0BEFC039B002B83
:101E600000D1B6E0002F05D09F4203D03900029880
:101E700000F0B2FC0399029800F0AEFCA9E0012248
:101E8000144206D0099BAD181A685B6804F024FC64
:101E90000123099A64100832099254E7039B089CB5
:101EA000099376E7734B621ED2009B181868596835
:101EB000059BE31818930F9B002B49D002000B00E1
:101EC0000020734903F0D2FF169A179B04F0BCFE62
:101ED000059B1490159116933900300005F0F6FA21
:101EE000050005F02BFB02000B003000390004F068
:101EF000ABFE169B30355C1C1D70149A159B0600BA
:101F00000F0003F017FA002863D132003B000020D5
:101F10005A4904F099FE149A159B03F00BFA002815
:101F200000D0B9E0189B9C4200D164E71498159941
:101F30000022534B04F0D0FB002214901591504B1B
:101F40003000390004F0C8FB169406000F00C3E708
:101F5000169A179B04F0C0FB14901591059D39004B
:101F6000300005F0B3FA040005F0E8FA0B000200B7
:101F70003900300004F068FE3034189B2C700135B5
:101F800006000F00AB4227D11498159900221C00BF
:101F90003F4B03F04BFB02000B003000390003F015
:101FA000DDF9002800D077E0149A159B002038490D
:101FB00004F04AFE02000B003000390003F0BAF9C9
:101FC000002800D117E72300013C2278302AFAD0FC
:101FD0001C00099B03933DE00022294B04F07CFB8D
:101FE00006000F00BBE7089F059E013FBF19069A38
:101FF000079B0C980D9903F039FF05F067FA05006F
:1020000005F09CFA069A079B04F066FB02000B00A1
:102010000C980D9904F018FE2A0033003032013676
:1020200034001A709F4247D102000B0003F0FEFA01
:10203000069A079B06000F0003F090F9002829D1AB
:10204000069A079B3000390003F06EF9002801D092
:10205000ED071FD40499029800F0BEFB0023237003
:10206000039B249A01331360269B002B00D1C7E405
:102070001C60C5E458790000307900000000F03F92
:102080000000244000001C400000C0FC0000144080
:102090000000E03F039B099323001C00013B1A78DA
:1020A000392A06D1059A9A42F7D1099A0132099242
:1020B000302201321A708CE70022C64B04F00CFB70
:1020C000002200230C900D9103F02EF900288ED0F1
:1020D000C0E70F9F0E9D069C002F14D0229A012A64
:1020E00000DDE4E0199A002A00D1DAE0BA4A9B1830
:1020F000069A0121D21806920A9A0298D3180A93D6
:1021000000F06EFC0700002C0ED00A9B002B0BDDAC
:102110000A9A2300944200DD1300069AE41AD21AA8
:1021200006920A9AD31A0A930E9B002B21D00F9B7A
:10213000002B00D1D3E0049E002D14D039002A00DA
:10214000029800F011FD049A01000700029800F0C7
:102150005FFC06000499029800F03EFB0E9B04967B
:102160005B1B0E9305D031000E9A029800F0FCFC28
:1021700004900121029800F033FC129B0600002B12
:1021800000D1BCE11A000100029800F0EDFC229B96
:1021900006000025012B16DC0025109BAB420ED15A
:1021A000119B1B03AB420AD18C4B119A134206D0F0
:1021B000069B0135013306930A9B01330A93129B58
:1021C0000120002B08D0336903339B00F3185868B3
:1021D00000F0B6FB2023181A0A9B181802001F23D0
:1021E0001A40184200D181E001339B1A042B79DD9B
:1021F0001C239B1A069AE418D21806920A9AD3183E
:102200000A93069B002B05DD1A000499029800F042
:102210000DFD04900A9B002B05DD31001A00029889
:1022200000F004FD0600139B002B61D031000498E0
:1022300000F068FD00285BDA039B0A22013B09934A
:1022400004990023029800F0EBFA0F9B0490002BF6
:1022500000D15BE1002339000A22029800F0E0FA85
:102260000B9B0700002B4DDC229B022B46DD0B9BBA
:10227000002B00D0E8E531000522029800F0D0FAEA
:1022800006000100049800F03DFD002800DCDBE5BD
:10229000059B059A5C1C31231370099B013309933C
:1022A000D6E536231A9A0E9D9B1A069C20E7089BBA
:1022B0005D1E0E9BAB4208DB5D1B089B002BF4DA16
:1022C000069B089A9C1A002312E70E9B129AEB1A9F
:1022D000D31812930E95069C0025089B08E70E9ACA
:1022E000049942E7042B8CD01C3383E71300FBE7EF
:1022F000039B0993089B0B93002BB5DD0F9B002BD1
:1023000000D107E1002C05DD39002200029800F021
:102310008DFC07000397002D20D07968029800F00B
:1023200019FA041E0CD122002D4B2E482E49FFF71E
:1023300034FB26003700ABE7039B089E0993F9E7BF
:1023400039003A690C31023292000C30FFF776FA0C
:1023500001222100029800F069FC0390059B0B9A72
:102360000693013B9B1801220E93109B13400C9384
:1023700031000498FFF776FA390005000A900498B6
:1023800000F0C0FC039A0B903100029800F0D6FCDC
:102390000122C368040030350892002B04D10100EB
:1023A000049800F0AFFC08902100029800F014FAA5
:1023B000069B229A5C1C089B13430C9A134315D16D
:1023C000392D2ED00B9B002B01DD0A9D3135069B4C
:1023D0001D703FE500002440330400000000F07F42
:1023E000587800002C780000EF0200000B9B002BB7
:1023F00004DB229A13430C9A13431ED1089B002B33
:10240000E5DD04990122029800F010FC31000490EF
:1024100000F078FC002802DCD9D1EB07D7D5392DA4
:10242000D3D13923069A137023001C00013B1A787C
:10243000392A51D001321A700CE5089B002B03DDBC
:10244000392DEED00135C2E7069B0E9A1D709342DE
:102450002DD000230A220499029800F0E1F9039B91
:1024600004909F4209D1390000230A22029800F00B
:10247000D7F90700039006947AE7390000230A226F
:10248000029800F0CDF9002307000A220399029870
:1024900000F0C6F90390EEE700240B9BA34201DD98
:1024A0001C00013C03970027059B0133E4180499A5
:1024B0000122029800F0BAFB3100049000F022FCE7
:1024C0000028B1DC01D1ED07AED423001C00013B94
:1024D0001A78302AFAD0BDE4059A9A42A5D1099B10
:1024E0000133099331231370B4E4154B269A0593F5
:1024F000144B002A01D0FFF781FAFFF781FA229BE3
:10250000012B00DC48E60120129D65E60B9B002BA9
:1025100000DCA9E6002431000498FFF7A3F9059B2D
:10252000303018550B9B01340500A342B4DD002365
:102530000A220499029800F073F90490EBE7C04670
:10254000087800001078000070B505000C1E10D04F
:10255000043C2368002B00DAE418280000F0EAF8B5
:102560001D4A1368002B05D163601460280000F039
:10257000E9F870BDA34208D9206821188B42F3D135
:1025800019685B6809182160EEE71A005B68002B88
:1025900001D0A342F9D911685018A0420BD120688C
:1025A0000918501811608342E0D118685B6841181F
:1025B00011605360DAE7A04202D90C232B60D5E703
:1025C000206821188B4203D119685B6809182160C3
:1025D00063605460CAE7C0461C03002010B5034B7B
:1025E0000100186800F026F810BDC0461400002055
:1025F00070B50F4E0D0031680400002902D102F0C1
:1026000071F830602900200002F06CF8431C03D1FF
:1026100001256D42280070BD0323C51C9D43A842BF
:10262000F8D0291A200002F05DF80130F2D1EFE76E
:1026300018030020F7B50322CB1C93430833050091
:102640001F000C2B34D20C27B94233D8280000F0DD
:1026500071F8374E33681C00002C2FD13900280048
:10266000FFF7C6FF0400431C5FD134680094009B51
:10267000002B4AD1002C52D023682800E31800997F
:10268000019302F02FF8019B834248D12368280070
:10269000FF1A3900FFF7ACFF013040D02368DB1987
:1026A000236033685A68002A33D1009B336019E0F5
:1026B000002BC9DA0C232B600020FEBD2168C91B4A
:1026C00020D40B290AD9E2192760A34204D1326031
:1026D00063681160536005E05A60F9E76268A342DD
:1026E0000ED13260280000F02DF8200007220B30B8
:1026F000231D9043C21A9842DFD01B1AA350DCE777
:102700005A60EFE723006468A6E7009C63680093C3
:10271000ADE71A005B68A342FBD10023DAE70C2384
:1027200028002B6000F00EF8C6E70760DAE7C04625
:102730001C03002010B50248FFF773F810BDC04617
:102740001403002010B50248FFF76CF810BDC04616
:102750001403002070B5C46905000E00002C10D1D0
:102760001020FFF73BFF041EE86105D122006B211A
:10277000174B184801F0CEFF0023436083600360CD
:10278000C360E368002B0BD121220421280001F053
:10279000DFFFEB69E060DB68002B01D1002070BD3A
:1027A000B2009B181868002805D002681A60002340
:1027B0000361C360F3E701210C00B440621D2800EF
:1027C000920001F0C5FF0028E8D046608460EEE783
:1027D000157800006978000070B5C66905000C0026
:1027E000002E0ED11020FFF7F9FE021EE86104D181
:1027F0008F21094B094801F08DFF46608660066015
:10280000C660002C07D0EB696268DB6892009B18F9
:102810001A6822601C6070BD15780000697800009D
:10282000F7B50F0001900C001E0000200D69143751
:102830003B68013099B251431B0C534389190E0C6C
:102840009B191E0C89B21B045B1808C78542EFDC7C
:10285000002E22D0A368AB4219DC616801980131D7
:10286000FFF778FF071E05D13A00BA210C4B0D483F
:1028700001F050FF210022690C31023292000C302D
:10288000FEF7DCFF21000198FFF7A6FF3C002B1D9F
:102890009B00E31801355E6025612000FEBDC04647
:1028A0005878000069780000F7B5060018000F009E
:1028B000083009210093140002F03AFC01230021A2
:1028C00083420ADB3000FFF745FF011E08D10A00F2
:1028D000194B1A48D33101F01DFF5B000131EFE7BE
:1028E000089B3D00436101230361092C16DD093576
:1028F0003B192F0001933B780A22303B3000FFF751
:102900008FFF019B013701009F42F4D12D19083D33
:102910002700009B9F4204DB0800FEBD09240A3506
:10292000F6E72B1BDB5D0A223000303BFFF778FF18
:1029300001370100EDE7C0465878000069780000D3
:102940008022030052020020934201D21B04103067
:1029500080225204934201D208301B028022520589
:10296000934201D204301B018022D205934201D24E
:1029700002309B00002B03DB0130134200D12020EA
:1029800070470368010007221800104013420DD061
:10299000063A0020134205D10230034203D0D3404F
:1029A00010000B6070479B080B60FBE79AB2002A8F
:1029B00001D110201B0CDAB2002A01D108301B0A09
:1029C0001A0701D104301B099A0701D102309B0874
:1029D000DA07E9D401305B08E6D12020E2E7000005
:1029E00010B50C000121FFF7B5FE002807D14621E4
:1029F000054C0200054B2000FF3101F08BFE012346
:102A00004461036110BDC046697800005878000039
:102A1000F0B50D6916690F00140089B0B54204DBEA
:102A200033000C002E0017001D0073190193A368DA
:102A300072196168934200DA0131FFF78BFE009052
:102A4000002806D1B121464B4648009A490001F0C2
:102A500061FE009A731914329B00D318029300216F
:102A600013000298834229D32300B6001433049341
:102A700014379B19AD000393BC462B0063440793A6
:102A800000230593230003991533994204D30C1BAB
:102A9000153CA408A3000593079B9C4510D3019BFC
:102AA000002B05DD029B043B02931B68002B52D0D8
:102AB000009B019A18001A6109B0F0BD02C3D0E76B
:102AC00063461C68A4B2002C1ED017000025049E8B
:102AD00001CE3B68069383B2634319006B46000C3A
:102AE0001B8B6043CB1806995B19090C4018190C15
:102AF00041189BB20D0C09041943039B02C7B34252
:102B0000E6D8059BD3185D6063461C68240C1ED074
:102B10001168160008000027049D2B68000C9BB26A
:102B20006343DB191B18180489B20843306080CD59
:102B300070683F0C674381B279181B0CC918039B5E
:102B40000F0C0436AB42E8D8059BD3185960042318
:102B50009C44D218A0E7019B013B01939FE7C0462C
:102B60005878000069780000F7B5032315000700C6
:102B70000C001A401D4208D02849013A92005258D0
:102B800000232100FFF74CFE0400AB10019342D05C
:102B9000FD69002D11D11020FFF720FD051EF86101
:102BA00006D1B4212A001E4B1E48FF3101F0B2FDB0
:102BB0000023436083600360C360AE68002E07D1CA
:102BC00038001949FFF70CFF00230600A8600360D6
:102BD0000122019B25001340019A52100192002B03
:102BE0000CD0210032003800FFF712FF290004004A
:102BF0003800FFF7F1FD019B002B0CD03068002856
:102C000007D1320031003800FFF702FF00233060A7
:102C100003600600DCE72000FEBDC046247900000A
:102C2000157800006978000071020000F0B50C0012
:102C300016002369571187B0FB18029301330193E3
:102C40004968A3680390019A934210DB0398FFF749
:102C500081FD0023010005001A00143198420CD1B7
:102C6000EF212A00254B2648490001F053FD013190
:102C70005B00E8E798000A500133BB42FADBFB43F4
:102C8000DB171F40BF002300C9191F20370022692E
:102C90001433920005919A180740064228D001305B
:102CA000C01B049000201E688C46BE400643604650
:102CB000066001CB049E0431F0409A42F3D8210013
:102CC000153100238A4203D3131B153B9B089B003D
:102CD000059AD3185860002801D1029B0193019BEB
:102CE000039821002B61FFF777FD280007B0F0BDA6
:102CF00040CB0E6004319A42FAD8EEE758780000D3
:102D00006978000030B50B6904690200E01A9C4242
:102D10000FD114329B0014311400C918D218043A90
:102D2000043915680B689D4204D001209D4200D2F1
:102D3000023830BD9442F2D3FBE70000F0B50C003E
:102D400087B00090110020001700FFF7DBFF051E81
:102D500010D101000098FFF7FDFC021E04D1454B85
:102D60004548464901F0D6FC012345610361100046
:102D700007B0F0BD0026B04203DA23003C001F007C
:102D8000013661680098FFF7E5FC021E03D1394B5C
:102D900039483B49E6E72369143400939B00E31864
:102DA000019314239C463B69BC449B0063440293FB
:102DB0000300C66000201433039305930494614616
:102DC000049B20CB049308C98C46A9B20E0099B28B
:102DD000711A09182D0C1B0C0814EB1A1B18181467
:102DE00089B21B041943059B02C30593029B6345EB
:102DF000E5D83B00029D153300219D4203D3EB1B18
:102E0000153B9B089900039B5B1861180E1D35004C
:102E100004330293039B1B1B0393039B9C46019B60
:102E2000AC449D4212D3019801310023884204D35F
:102E3000030003339B1B9B089B0002995B18043B18
:102E40001968002911D0009B136190E7070008CD95
:102E500098B2C01900141C0C0419DB1920149BB281
:102E60002404234364462360D7E700990139009185
:102E7000E5E7C04658780000697800003702000096
:102E80004502000010B500240C4B0D4A0B409B1866
:102E9000A34206DC5B421A15132A05DC80231B03C0
:102EA00013411900200010BD143A01241E2A02DC2F
:102EB00080242406D4400023F3E7C0460000F07FBE
:102EC0000000C0FCF7B50600036914369B00F31838
:102ED0001D1F2C680F0020000193FFF731FD2022F9
:102EE000121A3A6003001C4A0A2815DC0B2127003D
:102EF000091ACF403A438C4611000022AE4202D25A
:102F0000019A083A126815339C4063462700DA405C
:102F10001743380003B0F0BD0027AE4202D2019D36
:102F2000083D2F680B2149428C469C440B2B10D046
:102F3000614620238C405B1A3900D9400C43224360
:102F400011000022B54201D9043D2A686446A74019
:102F5000DDE722431100DCE70000F03FF7B5012177
:102F600016001F00FFF7F6FB041E05D12200254BBB
:102F70002548264901F0CEFB3B037D001B0B6D0D60
:102F800002D08022520313430193002E25D06846BD
:102F90000096FFF7F6FC009900281CD0019B202228
:102FA0001E00121A96403200C3400A436261019328
:102FB000019EA661731E9E4101362661002D14D02C
:102FC0003526134BED18089B2D181D60099B361AEA
:102FD0001E602000FEBD6161EAE701A8FFF7D1FC99
:102FE000019B012663612030E7E70A4BC018089B6C
:102FF0001860094BF3189B00E3185869FFF7A0FC11
:103000007601E3E758780000697800000F030000BC
:10301000CDFBFFFFCEFBFFFFFFFFFF3FF0B587B00B
:103020000F0004A90600FFF74DFF00900191009BDF
:10303000019C380005A902930394FFF743FF0D009C
:1030400002000B0030693969049E401A059940015D
:10305000711A41180805002908DD019941180391EA
:103060000298039902F002FF07B0F0BD2B1AF7E7B0
:1030700070B5140005000139136949110131890047
:1030800014349B004118E318A3420DD814001134E6
:103090000025A34203D39B1A113B9B089D000023EC
:1030A0004019884203D370BD40CC40C5ECE708C04E
:1030B000F7E70200006910B514324B11984213DB98
:1030C0000CDD1F2408002040214207D099008C58B5
:1030D0002100C140814001208C4204D19B00D318C3
:1030E000934203D8002010BD0300F7E7043B1968A2
:1030F0000029F5D00120F6E770B516000D00FFF7A6
:10310000C1FE002E0DD06B236A00520D9B1A002BBE
:1031100007DD0024034A1B059D182B00220003F045
:10312000DBFA70BD0000F03FF0B5A1B019920022AB
:1031300000260027049008911C921B910A780791A1
:103140002B2A20D00CD80D2A06D8082A06D8002A07
:103150000FD000230D938DE0202AFAD10131ECE746
:103160002D2A12D12C3A481C1B900D924A78002A25
:1031700040D1089B1B9300230D93199B002B2DD14D
:103180003000390034E00022EDE700210D910021EC
:103190000991302A00D06EE0079A203152788A4394
:1031A00007994D1C582A5BD102930D9BB94A019394
:1031B0001CAB009304981DAB1BA901F05FFB0F2310
:1031C00002001A4004000592184204D0062A13D1C6
:1031D00000231B950D93199B002B02D01B9B199A62
:1031E00013600D9B002BCBD0802330001B06F918F9
:1031F00021B0F0BD0790CAE71C9A002A07D03521FC
:103200001EA8FFF735FF1C990498FFF7E5FA05980B
:103210000138042806D801F0EDFE12031D1F12002C
:103220001E9E1F9FE40502D580231B061F439A4B59
:103230003B42D0D1FEF7EEFA22230360CBE7974959
:103240001F9A1D9B0A4096491E9E5B181B051A4338
:103250001700E7E7904FE5E70126924F7642E1E756
:103260002B001B951B7807950135302BF8D0002BD0
:10327000B1D00123099300250A2210950695079BDA
:1032800006995C5C2300303B092B31D9069A079BD9
:1032900085499818012201F0F0F900283DD000205E
:1032A00023008446069A0E9005922022190091432D
:1032B0000A0000210C91452A00D0B8E0059B099A2C
:1032C000034313438B4200D153E71B9B0893013305
:1032D0001B93089B5B782B2B75D02D2B7BD01191EA
:1032E0001A00303A092A7CD9089A1B9200229DE0E4
:1032F000069B082B0CDC109B5343303BE3181093C8
:10330000069B013306930699079B5B181B93B6E750
:103310002B005343303BE518F2E71B9B5A1C1B92D2
:10332000069A5B78002A35D00E9005921A00303A42
:10333000092A12D901229446B7E71B9B01305A1C77
:103340001B925B78302BF8D01A00313A082A35D816
:103350000E9000201B9A059007921900421C3039EC
:10336000302B11D00A240E9B9B180E93059BC0187E
:103370005A1C834210D10592082B18DC0A23109A9C
:1033800053430022CB1810931B9B1000591C1B9118
:103390005B78CBE70698D5E7082B04DC109B6343EA
:1033A00010931300E4E7102AFBDC6543F9E70022E1
:1033B0000F2BE9DC0A235D434D19E5E700220E924D
:1033C00005920132B7E700231193089B02331B9348
:1033D000089B9B7884E70123F6E71B9B5A1C1B92F2
:1033E0005B78302BF9D000220C921A00313A082A6F
:1033F0001DD8303B1C001B9B0C93591C1B910B7858
:1034000012911A00303A0131092A3CD90C99129ACA
:10341000521A26490C91082A03DC0C948C4200DDD8
:103420000C91119A002A02D00C9A52420C92059AE1
:10343000002A60D1099A104300D0CCE66246002AE7
:1034400000D096E6692B3AD036DC492B37D04E2B8C
:1034500000D08EE616491BA801F046FC002800D1DA
:1034600087E61B9B1B78282B3FD11EAC22001149FD
:103470001BA801F04DFC052837D11F9B064A1E9E54
:103480001A431700A7E60A226243D218303A140002
:10349000B4E7C046347A00000000F07FFFFFEFFF82
:1034A00033040000FFFFFF7F967800001F4E0000EE
:1034B000DC770000207A00006E2BCBD059E69449CF
:1034C0001BA801F011FC002800D152E61B9B91497A
:1034D000013B1BA81B9301F007FC002802D11B9B9A
:1034E00001331B9300268C4F75E68C4801F00CF9D4
:1034F00006000F006FE60C9B0E9A9B1A0993069B21
:10350000002B01D1059B0693059C102C00DD102497
:10351000109804F047F8059B06000F00092B12DCF9
:10352000099B002B00D156E6099B002B74DD162B5E
:1035300059DC7B49DB00C9183200086849683B0048
:1035400003F0CAF8D4E72200754B093AD2009B1861
:103550001A685B6803F0C0F8060028000F0004F04A
:1035600021F80B0002003900300002F05FF8059BE3
:1035700006000F000F2BD3DD059B099A1B1B991822
:10358000002900DC9DE00F220B000C001340944347
:10359000114251D19A235B009C425DDC0023300034
:1035A0003900604D24110893012C78D1002B01D0F3
:1035B00006000F005C4B089AFF185A4BD5005D19A6
:1035C0003200286869683B0003F086F8524B574A7E
:1035D00006000B4093423FD8554A93426DD90126CD
:1035E000544F764235E02523059A9B1A099A934257
:1035F000C2DB0F24059B4A4DE41AE1006918320032
:10360000086849683B0003F067F8099B1C1BE4004D
:103610002D192A686B6893E7099B1633ACDB0C996C
:103620000E9A3F4B521AD2009B1830001A685B6802
:10363000390002F01BFC5BE73949DB00C918320096
:10364000086849683B0003F047F806000F00002CAB
:10365000A0D100230893A4E00023059306931093C0
:10366000079322230026049A2B4F1360109BB3422A
:1036700000D1B0E51C990498FFF7AEF807990498BB
:10368000FFF7AAF806990498FFF7A6F8109904988E
:10369000FFF7A2F805990498FFF79EF89BE5012231
:1036A000144204D02A686B6803F016F80123089AC4
:1036B000641001320892083576E7D4239B04CF18B2
:1036C000C7E70029C5D049420F230A000C111A4050
:1036D00019420FD11F2C2FDD002305930693109361
:1036E00007932223049A00261360109B0027002BC7
:1036F000C0D170E50A4BD2009B1830001A685B6895
:10370000390002F0B3FB06000F00002CA1D0E1E766
:10371000D47700000B7800000000F07FEC78000008
:1037200058790000307900000000B0FC0000A07C57
:103730000000907CFFFFEF7F102322001A400892C8
:103740001C4201D05A330893300039000023C14D88
:103750000122144204D02A686B6802F0BDFF0123E5
:1037600064100835002CF3D1002B01D006000F00A7
:10377000089B002B0DD06B237A00520D39009B1A49
:10378000002B06DD1F2B5CDD0026342B52DDDC27F1
:10379000BF04002200233000390001F0C5FD0028DD
:1037A0009AD1109B069A00930799059B0498FFF7FE
:1037B0007BF81090002800D14EE7099B0C99DB4361
:1037C0000E9ADB17521A1292099A1299D2171140C7
:1037D000099A12911A400023189205930693109BA0
:1037E00004985968FEF7B6FF0790002800D138E723
:1037F000109B0C3019001A690C3102329200FEF74E
:103800001DF81EAB01931DAB009332003B000498E2
:103810000E960F97FFF7A2FB1C90002800D120E71F
:1038200001210498FFF7DCF8069000280ED1002350
:10383000069316E74B239A1A4C3B934019400F000E
:10384000A7E7012252429A401640A2E71D9B189A10
:10385000129DD41A002B01DB189C5D1908991E9A41
:103860005B1A36219B188A1A7B4901208C4600215D
:10387000013B13911490634506DA6146C91A521A46
:103880001F293FDC88401490AB180C93A418089BA8
:103890000C9A1C192B00954200DD1300A34200DD99
:1038A0002300002B04DD0C9AE41AD21A0C92ED1AB4
:1038B000129B002B16DD1A0006990498FFF754F9A5
:1038C00006900028B3D001001C9A0498FFF7A0F8D6
:1038D0001190002800D1C4E61C990498FEF77CFFE3
:1038E000119B1C930C9B002B12DC099B002B18DDF9
:1038F000189A07990498FFF737F90790002810D114
:103900000023ADE65549CB1A010099401391BAE75F
:103910000C9A1C990498FFF789F91C900028E4D1AF
:103920009FE6002C07DD220007990498FFF77EF937
:1039300007900028E4D0002D08DD2A00069904989D
:10394000FFF774F90690002800D18AE6079A1C99BF
:103950000498FFF7F3F90590002800D181E6C368C9
:10396000069911930023C360FFF7CCF900283EDAD3
:10397000119B33436AD10C973B0367D1D622384B56
:10398000D2043B40934261D9059B5B69002B03D174
:10399000059B1B69012B59DD059901220498FFF74E
:1039A00045F906990590FFF7ADF900284EDD2C4B3F
:1039B0000C9A1A401300089A002A73D0D622D20417
:1039C00093426FD8DC229204934200D889E63000FB
:1039D0003900244B002202F07FFE214B06000F002D
:1039E0000B4200D046E62223049A136042E60C976D
:1039F000002874D1119A3B031B0B002A38D01A4AB5
:103A0000934237D10121089B494232000800002B24
:103A10000BD0D424124B08003B40E404A34204D84A
:103A20006C301B0DC31A99400800824222D10F4B03
:103A30000C99994202D1013200D112E6084B0C9A3E
:103A400000261A401300802252039F18089B002B67
:103A5000BDD10FE6487A000002FCFFFFE2FBFFFF4A
:103A60000000F07F00005039FFFF0F00FFFFEF7FE5
:103A700033439CD0139B002B1CD00C9B139A1342F6
:103A8000E4D0119B30003900089A002B16D0FFF7C4
:103A900033FB02000B000E980F9901F0C7FD0600E2
:103AA0000F00D3E70126914A76429B18904A1A43A9
:103AB0001700CBE7149B3342C8D0E2E7FFF71CFBAB
:103AC00002000B000E980F9903F0BEF800220023AD
:103AD00006000F0001F028FC0028B7D001E6069987
:103AE0000598FFF79BFA80230022DB0504000D00F8
:103AF00001F02AFC00286CD0119B002B77D1002EFE
:103B000057D10C9B1B035AD1002220002900794B6E
:103B100001F010FC002859D1200029000022764B2A
:103B200002F0DAFD04000D0080231B06EB180A9456
:103B30000B930A9A0B9B14921593704A0C9B13409B
:103B40001393139A6E4B9A4200D087E06D4A0C9BF8
:103B5000944663441F0030001900FFF793F90A9A56
:103B60000B9B02F0B9FD32003B0001F05FFD634AA0
:103B7000654B06000A409A4240D90F9B634A934224
:103B800003D10E9B013300D16BE501265F4F7642D6
:103B90001C990498FEF720FE07990498FEF71CFE76
:103BA00006990498FEF718FE05990498FEF714FE8E
:103BB00015E6012E03D10C9B002B00D191E50023CB
:103BC000534C4C4D0A930B940024B2E700244A4D09
:103BD000AAE720002900484B002202F07DFD119B3E
:103BE00004000D00002B9FD00A940B95A1E7002341
:103BF000404C25000A930B941C009AE7D4239B04A5
:103C0000CF18089B002BC3D13C4B139A3B409A42E0
:103C1000BED12000290001F0F1FB01F029FC0200D7
:103C20000B002000290003F00FF83B03119A1B0B37
:103C30003343134304000D00364A002B52D0364B59
:103C400001F078FB002800D014E520002900334A59
:103C5000294B01F083FB00289AD00BE5089B002B31
:103C60002AD0D423139ADB049A4225D820002900B5
:103C70002B4A2C4B01F068FB002816D020002900AD
:103C800001F0A0FB002800D1013003F08BFC119B58
:103C900004000D00002B22D180231B06CB181690A8
:103CA0001793169A179B14921593D622159BD2043C
:103CB0009B18139A9B1A15930E980F99149E159F93
:103CC000FFF7E0F802000B003000390002F004FDBD
:103CD0000E9A0F9B01F0AAFC06000F0091E71694C4
:103CE0001795DEE7104B01F025FBB4E70000F0FF6D
:103CF000FFFF0F000000F03F0000E03F0000F07FFA
:103D00000000E07F0000B0FCFFFF9F7CFFFFEF7F23
:103D10000000F0BF9535A094FFFFDF3F35E5AF35DC
:103D20000000C0FFFFFFDF41FFFFCF3F10B5024B98
:103D3000FFF7FAF910BDC04664000020F0B585B069
:103D400017001E0003900191242B23D80C00012B97
:103D500020D03D4B08229C46230061461D7801344B
:103D6000485D010011401042F6D12D2D19D1257862
:103D70009C1C012300931022330093431DD1302D4E
:103D800015D1202123788B43582B10D1657802342C
:103D9000102612E0FDF73EFD16230360002005B05B
:103DA000F0BD00912B2DE6D125789C1CE3E7002E79
:103DB000EED10A36302D00D1023E244A009B9446B3
:103DC000634431001800029301F0AEF900228446EA
:103DD00010002B00303B092B11D81D00AE421DDD19
:103DE000531C09D001225242844505D301D1A94276
:103DF00011DB01227043281825780134E9E72B00F4
:103E0000413B192B01D8373DE8E72B00613B192BCB
:103E100004D8573DE2E701225242EDE7531C08D196
:103E20002223039A02981360002FB8D0631E0193D7
:103E300007E0009B002B00D04042002FAFD0002AAB
:103E4000F4D1019B3B60AAE7717A0000FFFFFF7F7E
:103E500010B5FFF773FF10BDF0B58E6885B01F0079
:103E60000C00330002900392BE4254D80C22885EAC
:103E70009022D20010422CD00322096923685B1AD9
:103E8000019363695343019ADD0FED187B1C6D109C
:103E90009B182A00AB4201D91D001A00400527D506
:103EA00011000298FEF7C6FB061E2AD0019A21696E
:103EB000FDF7C4FCA289194B1A4080231343A38148
:103EC000019B2661F618266065613E00ED1A3B00F5
:103ED000A5601F003A000399206800F0BCFB002099
:103EE000A3689B1BA3602368DB19236005B0F0BDAA
:103EF000029800F0C9FF061EE2D121690298FEF780
:103F000023FB0C230120029A40421360A289343320
:103F10001343A381EAE73E00DCE7C0467FFBFFFFD7
:103F2000F0B59FB002901C008B890E0015001B0697
:103F300011D50B69002B0ED14021FEF77BFB3060C1
:103F40003061002805D10C23029A13600120404201
:103F5000D4E0402373610023292102AA52180B9355
:103F600020331370013102AA1033521813700594D4
:103F70002C002378002B01D0252B48D1671BAC42A5
:103F80000BD03B002A0031000298FFF765FF01309B
:103F900000D1AEE00B9BDB190B932378002B00D1F3
:103FA000A7E00122532100235242079202AA52188D
:103FB000651C06930993089313701C93554F297839
:103FC00005223800FDF72FFC6C1C069906AB002873
:103FD0001FD1CA0604D55327202202A8C019027097
:103FE0000A0704D553272B2202A8C01902702A7889
:103FF0002A2A15D02C0000200A27DA682178651CAF
:104000003039092950D9002811D009920FE0013424
:10401000AFE70123C01B83400B4325000693CDE788
:10402000059A101D12680590002A37DBDA602278A5
:104030002E2A0CD162782A2A3BD1059A0234111D0E
:1040400012680591002A01DA012252425A60324D6B
:10405000032228002178FDF7E6FB06AF002806D0F2
:104060004023401B8340069A013413430693217872
:1040700006222A48651C3976FDF7D5FB00283FD07B
:10408000274B002B29D10722059B07339343083385
:1040900005930B9B03995B180B9369E75242DA6017
:1040A00002220A430692C2E77A432C0001205218EA
:1040B000A4E700220A205A6011001300013422787C
:1040C000651C303A092A03D9002BC0D00791BEE7FE
:1040D00041432C0001238918F1E705AA0092390019
:1040E0003200104B0298FCF73FFB0390039B013317
:1040F000CFD1B3890B985B0600D527E71FB0F0BD81
:1041000005AA009239003200064B0298FCF7CAFD5E
:10411000EBE7C046987800009E780000A278000087
:1041200069070000593E0000936810B5013B936099
:10413000002B04DA9469A34207DB0A2905D013682F
:10414000581C10601970080010BDFDF76BFA0100D3
:10415000F9E7F8B506000F001400D518AC4201D1FC
:10416000002007E021783A003000FFF7DDFF01343E
:10417000431CF3D1F8BD0000F0B59FB00D00160050
:104180001C000290002804D0036A002B01D1FDF727
:104190002DF96B6EDB0705D4AB899B0502D4A86DA6
:1041A000FDF73FFBAB891B0702D52B69002B13D111
:1041B00029000298FDF778FA00280DD06B6EDB0716
:1041C00003D5012040421FB0F0BDAB899B05F8D458
:1041D000A86DFDF727FBF4E70023292102AA521856
:1041E0000B9320331370013102AA1033521813704D
:1041F000059434002378002B01D0252B48D1A71B30
:10420000B4420BD03B00320029000298FFF7A1FF17
:10421000013000D1AEE00B9BDB190B932378002B10
:1042200000D1A7E00122532100235242079202AAA3
:104230005218661C06930993089313701C93594FE8
:10424000317805223800FDF7EEFA741C069906ABAA
:1042500000281FD1CA0604D55327202202A8C0195E
:1042600002700A0704D553272B2202A8C019027036
:1042700032782A2A15D0340000200A27DA682178FB
:10428000661C3039092950D9002811D009920FE055
:104290000134AFE70123C01B83400B432600069384
:1042A000CDE7059A101D12680590002A37DBDA6009
:1042B00022782E2A0CD162782A2A3BD1059A023420
:1042C000111D12680591002A01DA012252425A603A
:1042D000354E032230002178FDF7A5FA06AF0028FD
:1042E00006D04023801B8340069A01341343069373
:1042F000217806222D48661C3976FDF794FA0028AD
:1043000047D02B4B002B29D10722059B0733934322
:10431000083305930B9B03995B180B9369E7524293
:10432000DA6002220A430692C2E77A43340001208F
:104330005218A4E700220A205A6011001300013429
:104340002278661C303A092A03D9002BC0D0079185
:10435000BEE74143340001238918F1E705AA009222
:1043600039002A00134B0298FCF7FEF90390039BD7
:104370000133CFD16B6EDB0705D4AB899B0502D42B
:10438000A86DFDF74FFAAB895B0600D519E70B98CE
:1043900019E705AA009239002A00064B0298FCF79B
:1043A00081FCE3E7987800009E780000A278000086
:1043B0006907000053410000F7B50C228B5E050031
:1043C0000C001A075AD44A68002A02DC0A6C002A38
:1043D0004FDDE76A002F4CD0002280212E682A6032
:1043E0001A0049010A400B4234D0626DA3895B0771
:1043F00006D56368D21A636B002B01D0236CD21AE6
:1044000000232800E76A216AB8470C23E25E431CB8
:1044100006D129681D292ED82B4BCB40DB072AD586
:104420000023636023692360D20405D5431C02D1B5
:104430002B68002B00D16065616B2E60002918D0BD
:1044400023004433994202D02800FEF77DF8002370
:1044500063630EE001232800216AB8470200431C71
:10446000C4D12B68002BC1D01D2B01D0162B1DD120
:104470002E60002021E0402313431BE00E69002E34
:10448000F7D00F680E60BA1B019200229B0700D183
:104490004A69A260019B002BEBDDA36A32001F007A
:1044A0002800019B216AB847002807DC4023A28925
:1044B00013431BB20120A3814042FEBD019B36186D
:1044C0001B1A0193E6E7C046010040200B6970B556
:1044D00005000C00002B02D10025280070BD00282B
:1044E00004D0036A002B01D1FCF780FF0C22A35EED
:1044F000002BF1D0626ED20704D49B0502D4A06DCC
:10450000FDF78FF928002100FFF756FF636E0500C5
:10451000DB07E2D4A3899B05DFD4A06DFDF782F908
:10452000DBE70000F0B50E001D000E23C95E14008D
:1045300097B000290CDAB2898023110019401A4281
:1045400014D18023DB0000202960236017B0F0BD68
:104550006A4600F0A3F80028EDDBF02301991B0266
:104560001940044BC9184B425941EAE70021402346
:10457000E9E7C04600E0FFFFF7B502268B8905009A
:104580000C00334206D0230047332360236101230C
:104590006361F7BD6A4601ABFFF7C4FF009F2800C7
:1045A0003900FEF747F80C22A35E002806D19A05D1
:1045B000EFD4032293431E43A681E4E780221343F2
:1045C000A381019B206020616761002BE1D028005E
:1045D0000E23E15E00F074F80028DAD00323A289EC
:1045E0009A43023B1343A381D3E770B506000D0045
:1045F0001400002804D0036A002B01D1FCF7F6FE5A
:10460000636EDB0705D4A3899B0502D4A06DFDF77B
:1046100008F9A368013BA360002B05DAA269934265
:1046200012DBEBB20A2B0FD023685A1C22601D70DC
:10463000EDB2636EDB0705D4A3899B0502D4A06DA0
:10464000FDF7F0F8280070BD290022003000FCF7CB
:10465000E9FF0500EDE710B5884202D98B189842B2
:1046600008D300239A4207D0CC5CC4540133F9E745
:104670008B5C8354013AFBD210BD30B50500101E8F
:104680000BD00024013A2B5D085D834204D1944293
:1046900002D00134002BF6D1181A30BD002370B5BA
:1046A000064D0400080011002B60FBF7CFFE431CF1
:1046B00003D12B68002B00D0236070BD10030020B5
:1046C000002370B5064D040008002B60FBF7C4FE04
:1046D000431C03D12B68002B00D0236070BDC04663
:1046E00010030020002370B5064D040008002B6065
:1046F000FBF7D0FE431C03D12B68002B00D02360B6
:1047000070BDC04610030020002001497047C0461C
:104710000000F87F7FB514001A00094B05001B68E4
:104720000E00D868074B002C01D1074B1C0007492D
:10473000019302942B00009600F0E4FB00F0F2FBE2
:1047400014000020B1780000EC780000BE78000072
:1047500070B50B0C150C002B1ED1002D0CD189B29D
:1047600094B24C432100FDF765FF051E1BD02200CB
:104770000021FCF7F5FF16E02B1C0C1C89B292B24D
:104780004A439BB2A1B25943140C0C19230C07D114
:10479000240492B21443E5E7002D01D1141CEDE787
:1047A0000C2300250360280070BD0200F0B50469E9
:1047B00085B014324B11160002939C4231DD1F2646
:1047C0000F009B00A500D31837405519009301979F
:1047D00031420DD1160019008D4236D8009B0026BB
:1047E000033B9D4202D3029BE41AA600961918E0EF
:1047F0002021019E019F891B009E039102CE9446B9
:10480000F940B54216D8009B002601339D4203D3E0
:10481000029BE41AA600043E96193160002900D0DC
:104820000436B11A89100161964201D10023436117
:1048300005B0F0BD3768039B9F400F43614680C1C0
:104840008C46019B02CED940DBE780C980C6C3E716
:104850000200303A0300092A02D8203BD8B2704740
:104860000200613A052A01D8473BF7E71A00413AAE
:104870000020052AF3D8273BF0E70000F0B589B007
:1048800007930B680192039006919A1C1100013264
:10489000501E00783028F9D0CB1A023B05930091C6
:1048A000FFF7D6FF00231D00029398421ED101227C
:1048B000A6490098FFF7E1FE0700A84200D06AE091
:1048C000009B58785C1CFFF7C3FF01230293A842AA
:1048D0002FD00094009B1878302809D0FFF7B8FF3C
:1048E000434243410293012325000593009C04E0C9
:1048F000009B01330093EDE701342078FFF7A8FF18
:10490000071EF9D1012220009049FFF7B6FE0028CA
:104910000DD1002D06D1013425002078FFF798FF36
:10492000002802D12D1BAF0003E00134F5E7002D74
:10493000F8D12022237826009343502B1DD1637891
:104940002B2B2DD02D2B2FD00023661C04933078D9
:10495000FFF77EFF431EDBB20500182B2AD87078C4
:10496000FFF776FF431EDBB20136103D182B1DD931
:10497000049B002B00D06D427F19069B1E60029B9A
:10498000002B19D0059B06265A4253415B421E401C
:10499000300009B0F0BD01230027009C0293C8E756
:1049A00000230493A61CD2E70123FAE70A235D4300
:1049B0002D18D4E72600E0E7009B0299E31A013B9B
:1049C000072B0ADC0398FDF7C5FE051E08D12A0057
:1049D000E4215F4B5F48FFF79DFE01315B10EFE77D
:1049E000030014330293059300231E000493009BDD
:1049F000A34238D3059C029B40C4E41AA4103000A3
:104A00002C61FDF79DFF019B64011B68261A009332
:104A10009E4252DDF61A31002800FEF74AFB041EC2
:104A20000FD001241F212000731E1940884001006F
:104A30005A110298920012580A4202D0A34234DC62
:104A4000022431002800FFF7B0FEBF19019B9B68CC
:104A5000BB4242DA29000398FDF7BEFE00230E9AFE
:104A6000A326136094E7013C23782E2B12D0049BDD
:104A7000202B04D1059B40C3002605930496207883
:104A8000FFF7E6FE0F231840049B984004330643CB
:104A90000493ACE7009BA342E9D8012220002B49F4
:104AA000FFF7EBFD0028E2D1A1E72800B11EFEF7D9
:104AB00000FB0028C4D00324C3E7009B00249E42CF
:104AC000C4DA9E1B290032000398FEF7AFF80300FA
:104AD00014330500BF1B0293B8E7019B5E68BE421A
:104AE0006FDD009BF61BB34236DC019BDB68022BBB
:104AF00024D0032B26D0012B17D1009BB34214D115
:104B0000012B0BD1019B079A5B686226136001237E
:104B1000029A2B6113600E9B1D6039E700992800F3
:104B20000139FEF7C6FA0028ECD129000398FDF7F9
:104B300053FE00230E9A5026136029E70F9B002B8B
:104B4000F3D1DFE70F9B002BDCD1EEE79678000076
:104B500058780000ED780000771E002C2FD1002F30
:104B600004D039002800FEF7A4FA04001F237A11AC
:104B70001F401E3BBB400299920052581A4201D07E
:104B800002231C43009B31009B1B0226280000933C
:104B9000FFF70BFE019B5F68002C3FD0019BDB6899
:104BA000022B10D0032B12D0012B06D1A20704D563
:104BB000029A126814431C420CD110232DE00124E8
:104BC000D4E70126E8E701230F9A9B1A0F930F9B66
:104BD000002BF2D02B69002002939B0004932B0042
:104BE000049A143399181A68541C1CD001321A60A4
:104BF0002B001433022E3FD1019A00991268013A1A
:104C00008A4209D10A001F20104001228240491126
:104C10008900CB5813423DD120231E430E9B1D60BB
:104C2000079B1F60B4E601C39942DCD8AB68029AC7
:104C30009A4218DB696803980131FDF78BFD041E69
:104C400004D1220084211D4B1D48C4E629002A6995
:104C50000C31023292000C30FCF7F0FD2900039871
:104C6000FDF7BAFD25002B695A1C2A610122043385
:104C70009B00EB185A60BBE72A6902998A420BDD58
:104C800001212800FFF791FD019B01379B68BB4282
:104C900000DADFE60126BFE71F22009C00991440DE
:104CA0001142F7D0049A9B18043B1868FDF748FEA0
:104CB00020231B1B9842E3DBECE7C046587800003A
:104CC000ED780000082370B520259A1A9200AD1ADD
:104CD000436804681E00AE40D34034430460436020
:104CE00004308842F4D370BD30B503680C780133CA
:104CF000002C02D10360012030BD1A781500413D1F
:104D0000192D00D820320131A242EFD00020F3E764
:104D1000F0B50B688BB0019201995A1192008A1874
:104D2000029219001F22114008900691134202D0EE
:104D3000029B04330293029B00251F1F3E003C0090
:104D4000089B3D601B68079505930395059B013300
:104D50000993059B5B780493002B28D00498FFF7F8
:104D600077FD002857D1049B202B19D8039B079A65
:104D7000934212DDB44206D2072D04DC2A00310032
:104D80002000FFF79FFF019B08259C4205D9261FA5
:104D900000253400039B35600793099B0593D5E7F5
:104DA000049B292B5CD1059B089A02331360039B5B
:104DB000002B55D0B44206D2072D04DC2A00310066
:104DC0002000FFF77FFF019B9C4238D91A00230087
:104DD00002CB02C29F42FBD2029B621CD91E00235F
:104DE000914204D3029B043B1B1B9B089B000021A8
:104DF000019A04329B181A00043311609F42FAD2C0
:104E00003B68002B04D1019B9F4227D101233B60CB
:104E100005200BB0F0BD039B013501330393082D32
:104E200006DD019B9C42B8D900230125043C236088
:104E30000F22236810401B0103432360ADE7069B4C
:104E4000002BDDD02023069A02999B1A01225242A0
:104E5000DA4004390B6813400B60D1E7043FCFE719
:104E60000420D6E782B0002900D101A9101E06D087
:104E7000002B06D013780B601078431E984102B0C7
:104E8000704702204042FAE7F7B506000C00150013
:104E9000002905D11100FDF7CDFB04002000FEBD67
:104EA000002A03D1FDF750FB2C00F7E700F041F892
:104EB0000700854202D84308AB42EFD329003000F7
:104EC000FDF7B8FB0190002801D1019CE6E72A001C
:104ED000BD4200D93A0021000198FCF7AFFC210047
:104EE0003000FDF731FBF0E70300081E05D0FF2A74
:104EF00004D98A2201201A604042704701200A70BA
:104F0000FBE700000EB417B5054C05AB04CB010060
:104F100020680193FFF730F91EBC08BC03B01847A6
:104F200014000020062010B500F034F80120FBF733
:104F3000B9FA0B1F1B68181F002B01DA0B58C01899
:104F4000704770B504000D001F2904D916230360B3
:104F50000120404270BDC36B002B04D08A009B1817
:104F60001A68002A08D1200000F030F82A00010059
:104F7000200000F019F8EDE7012A09D0511C03D1F7
:104F8000162303600120E5E70021280019609047FF
:104F90000020DFE710B5034B01001868FFF7D1FFD1
:104FA00010BDC04614000020002370B5064D04005B
:104FB000080011002B6000F015F8431C03D12B688A
:104FC000002B00D0236070BD1003002010B500F04E
:104FD00001F810BD58220120014B40421A60704771
:104FE0001003002058220120014B40421A607047F4
:104FF0001003002002B4714649084900095C4900C9
:105000008E4402BC7047C04603B471464908400054
:105010004900095E49008E4403BC704700224308E2
:105020008B4274D303098B425FD3030A8B4244D370
:10503000030B8B4228D3030C8B420DD3FF220902B2
:1050400012BA030C8B4202D31212090265D0030B71
:105050008B4219D300E0090AC30B8B4201D3CB0367
:10506000C01A5241830B8B4201D38B03C01A5241A9
:10507000430B8B4201D34B03C01A5241030B8B42AB
:1050800001D30B03C01A5241C30A8B4201D3CB0296
:10509000C01A5241830A8B4201D38B02C01A52417B
:1050A000430A8B4201D34B02C01A5241030A8B427E
:1050B00001D30B02C01A5241CDD2C3098B4201D396
:1050C000CB01C01A524183098B4201D38B01C01A14
:1050D000524143098B4201D34B01C01A524103098B
:1050E0008B4201D30B01C01A5241C3088B4201D33A
:1050F000CB00C01A524183088B4201D38B00C01AE7
:10510000524143088B4201D34B00C01A5241411A0D
:1051100000D20146524110467047FFE701B500201A
:1051200000F0F0F802BDC0460029F7D076E77047DE
:1051300003460B437FD4002243088B4274D30309F8
:105140008B425FD3030A8B4244D3030B8B4228D399
:10515000030C8B420DD3FF22090212BA030C8B42BF
:1051600002D31212090265D0030B8B4219D300E05F
:10517000090AC30B8B4201D3CB03C01A5241830BE4
:105180008B4201D38B03C01A5241430B8B4201D394
:105190004B03C01A5241030B8B4201D30B03C01ABD
:1051A0005241C30A8B4201D3CB02C01A5241830A37
:1051B0008B4201D38B02C01A5241430A8B4201D366
:1051C0004B02C01A5241030A8B4201D30B02C01A90
:1051D0005241CDD2C3098B4201D3CB01C01A5241F7
:1051E00083098B4201D38B01C01A524143098B4280
:1051F00001D34B01C01A524103098B4201D30B0169
:10520000C01A5241C3088B4201D3CB00C01A52418D
:1052100083088B4201D38B00C01A524143088B4252
:1052200001D34B00C01A5241411A00D201465241EB
:10523000104670475DE0CA0F00D04942031000D30A
:105240004042534000229C4603098B422DD3030A5F
:105250008B4212D3FC22890112BA030A8B420CD36F
:10526000890192118B4208D3890192118B4204D398
:1052700089013AD0921100E08909C3098B4201D318
:10528000CB01C01A524183098B4201D38B01C01A52
:10529000524143098B4201D34B01C01A52410309C9
:1052A0008B4201D30B01C01A5241C3088B4201D378
:1052B000CB00C01A524183088B4201D38B00C01A25
:1052C0005241D9D243088B4201D34B00C01A5241FC
:1052D000411A00D20146634652415B10104601D389
:1052E0004042002B00D54942704763465B1000D313
:1052F000404201B5002000F005F802BD0029F8D0B9
:1053000016E770477047C0468446100062468C46D8
:105310001900634600E0C0461FB501F073F900288C
:1053200001D40021C8421FBD10B501F0B7F84042BA
:10533000013010BD10B501F065F9002801DB002037
:1053400010BD012010BDC04610B501F05BF900286A
:1053500001DD002010BD012010BDC04610B501F0D8
:10536000E7F8002801DC002010BD012010BDC04678
:1053700010B501F0DDF8002801DA002010BD012091
:1053800010BDC046002B11D1002A0FD1002900D139
:10539000002802D00021C943080007B4024802A136
:1053A0004018029003BDC0465DFFFFFF03B468468E
:1053B00001B5029800F072F8019B9E4602B00CBC49
:1053C0007047C04670B500220B4B04000D00FFF77C
:1053D000CFFF002804D12000290002F077F870BD2B
:1053E000054B00222000290001F02EFC02F06EF88F
:1053F00080231B06C018F2E70000E04170B50022D0
:10540000002304000D00FFF795FF002808D12000BD
:10541000290000F00FF802000B001000190070BD09
:1054200080231B06E918200000F004F80023424204
:105430008B41F2E770B500220B4B0D00040001F028
:105440004BF9FFF7BFFF060002F0ACF80022074B54
:1054500001F042F902000B002000290001F0F4FBEA
:10546000FFF7B0FF310070BD0000F03D0000F041DB
:1054700070B50600080002F061F80022064B01F04A
:105480002BF90D000400300002F08CF82B002200F4
:1054900000F0CCF870BDC0460000F041F0B54546C4
:1054A0005746DE464E46E0B504000D0090469A464B
:1054B00083B08B422ED82BD05146404602F044F99F
:1054C00029000600200002F03FF9331A9946203BDC
:1054D00031D442469A409B46170043464A46934081
:1054E0001E00AF4237D8AF4200D175E05A46A41B28
:1054F000BD41002A00DA72E0012300200021934020
:1055000000900191019301234A469340009326E0C5
:105510008242D1D900220023009201930C9B002BE0
:1055200000D030C30098019903B0F0BCBB46B2462E
:10553000A946A046F0BD4A469B46202341469B1AF9
:10554000D9400B00514691404A465F18434693406C
:105550001E00AF42C7D900220023009201934946A2
:105560000029DBD0FB079C46720862440E007B08D2
:105570000EE0AB4201D1A2420CD8A41A9D410120F9
:1055800024196D410021013E24184D41002E06D002
:10559000AB42EED9013E24196D41002EF8D100989E
:1055A00001995A4600196941002A23DB2B004C4619
:1055B000D3402A005E46E2401C001500002E29DB85
:1055C0001F00B7403B0026004F46BE403200801A05
:1055D000994100900191A1E7A342BCD886E74A46D1
:1055E000202300219B1A0022009101920122DA401F
:1055F000019288E74E4620232A009B1B9A402300F5
:10560000F3404C46D3182A005E46E2401C001500C9
:10561000002ED5DA4F4620232600DB1BDE40B446A1
:105620001600BE4033006344CDE7C046F0B54746A0
:10563000CE4680B583B0009001910D034E000199D4
:105640005F00CC0F690A009D760D6D0F0D43009928
:1056500000920193C8001903019B7F0DDB0F9C464C
:105660004B0A0099490F1943009BDB009846F31B36
:10567000644565D0002B14DD002F00D0AFE00F0093
:105680004246174300D14BE15A1E012B00D1C3E221
:10569000AE4FBB4200D11EE2382A00DD52E21300B9
:1056A0005FE1002B00D1AAE0BB1B002E00D0D5E1AA
:1056B0002C00044300D184E25C1E012B00D122E3C4
:1056C000A24EB34200D1C9E2382C00DC7BE3424653
:1056D000013A9146904592418D1864461E002A0277
:1056E00062D501235B429946994D280002F00EF8DD
:1056F0000300083B484620210700CA1AD7409D40B6
:1057000098403A0081462A430500B34200DADAE1C4
:10571000981B2B000130091A8B40C5405E1EB34117
:1057200017008F402B431F43C2403B00150013431B
:1057300000D111E27B0700D05DE1A446380083E090
:10574000002B00DCCDE0002F00D08BE00F004246A4
:10575000174300D1E4E05F1E012B00D140E27B4AF9
:10576000934200D1B7E1382F00DCDDE28022120441
:10577000154200D14DE31E00002315009946734BDE
:1057800001369E421DD0734A012115404A465308F6
:105790001140EF070B431F436D085B0709D00F2330
:1057A000B9463B40042B04D04B461F1D4F459B413F
:1057B000ED1A2B0200D487E0644A0136964200D0ED
:1057C00085E03300002500271B052B43E407234316
:1057D0003800190003B0C0BCB946B046F0BD5B4FFD
:1057E000BE4200D127E2382B00DCB7E0431E9842CE
:1057F00080412D1899462B0200D572E7D4E7564F09
:10580000731C3B4200D04BE12B000F004246034388
:105810001743002E00D0D9E1002B00D112E2002F57
:1058200000D115E2821A9042B6416B1A9B191E02F2
:1058300000D4DEE24346181A8045924107004D1B12
:10584000AD182F4300D1F6E264460700012329007A
:1058500080462A023DD443464F07DA081743002307
:10586000CE08F6E0394FBE4200D134E1382B00DDDE
:105870004FE180273F0439431F2B00DDFBE1202748
:10588000FA1A0F00944697404246DA401743B94649
:105890006246474697403A00D940571EBA414F46A4
:1058A0006D183A4313188342804199462D1A2B02F2
:1058B00000D564E74A46530700D1C0E20F231340E6
:1058C000042B00D070E74F463300F80829E0730539
:1058D0005B0D204AFF0815406A076D0217432D0B28
:1058E00072E7002B00D191E0BB1B002E00D019E124
:1058F0002E00064300D149E25E1E012B00D136E2A4
:10590000124A934200D1C9E1382E00DC91E2802591
:105910002D04294200D195E21E00002399462EE76E
:10592000C0086A071043094AEE08934200D087E195
:105930000700374307D080252D0335432D0307008B
:10594000024B2D0B40E70025004B3DE7FF07000011
:10595000FFFF7F00FFFF7FFFFE07000080273F045F
:1059600039431F2B00DDBBE02027FA1A0F009740B8
:1059700094463A004746DF403A43914647466246DE
:1059800097403A00D940571EBA414F466D1A3A43E4
:10599000831A9842804199462D182B028AD56D02B0
:1059A0006D0A002D00D0A0E6484601F0AFFE0300CE
:1059B00018331F2B00DC9DE64A46083882409E4281
:1059C00000DDA0E09B1B581C1F2800DC0DE2170027
:1059D0001F3BDF40202805D040231B1A9A40531E4E
:1059E0009A411743002F6BD007231900B84639405E
:1059F0003B4200D12FE70F233B40042B00D037E17F
:105A00000026033B2A0200D563E75DE7C74F731CFE
:105A10003B4200D0AFE02B000343002E00D054E106
:105A20000F0042461743002B00D1C7E1002F00D1E1
:105A30000EE18218824280416D182D1A2B0200D58A
:105A4000DEE117002F433BD00023D2086F07174336
:105A5000EE0835035B052D0B5B0DB5E6B44CA74294
:105A600000D1FBE0382B7ADC8024240425431F2B53
:105A700000DD19E120262C00F61A0200B040B440E7
:105A8000DA40461EB041DD4014432043491B4346E3
:105A90001B1A98459241994664463E008D187CE752
:105AA0004346C71AB946B842BF416B1A7F42DB1B57
:105AB0001F027DD44F461D001F4300D071E7002414
:105AC0000023002580E69B4DF61A1540020043078F
:105AD00000D0F3E6F7E66A07C0081043EE0827E7B0
