:1020000000800020ED260000E9260000E9260000FF
:1020100000000000000000000000000000000000C0
:10202000000000000000000000000000E9260000A1
:102030000000000000000000E9260000E926000082
:10204000E9260000E9260000E9260000E926000054
:10205000E9260000E9260000E9260000E926000044
:10206000E9260000E9260000E9260000E926000034
:10207000E9260000E9260000E9260000E926000024
:10208000E9260000E9260000E9260000E926000014
:10209000E9260000E9260000E9260000E926000004
:1020A000E9260000E9260000E9260000E9260000F4
:0420B000E92600001D
:1020B400F0B5DE46574645464E46E0B583B06C461D
:1020C4003A4B8246150010001A888B4622809B7872
:1020D400A37000F019F90321684600F021F90328E0
:1020E40008D00124200003B0F0BCBB46B246A94688
:1020F400A046F0BD012000F037F9041EF1D12C4BAD
:102104000193019B5A1E0192002B05D0C046019BEE
:102114005A1E0192002BF9D101220621280000F059
:1021240079F9062801D00224DCE700F019FA00F05E
:1021340017FA050000F014FA814600F011FA0600BF
:1021440000F00EFA804600F00BFA4A460700280415
:10215400F02513062D031B0C28401843FF2333409E
:10216400184301F0D3FB134901F03CF8D62189054B
:1021740001F038F85A4610604246300313061B0C2F
:102184002840FF2218433B001340184301F0BEFBD4
:10219400094901F027F8D621890501F023F80749F8
:1021A40001F06AF9534618609CE7C046D039000034
:1021B400304F2A010000C842000048430000484252
:1021C40000B583B000F086FA074800F043F800F049
:1021D400DBF9064800F0D2FB3822684601A9FFF774
:1021E40067FFC046FDE7C046A0860100D439000061
:1021F400012110B5144A13680B431360D369DB073C
:10220400FCD4124B41001360114800F05FFF053805
:10221400FF2814DDFF2002210B4AD06013680B4312
:102224001360D3699B07FCD43021538B8B4310215B
:102234000B435383044AD3695B07FCD410BDC343E7
:10224400DB171840E7E7C0460014004214003008CA
:10225400006CDC02F8B50023562102260425214A2D
:1022640004001360204A1360204A1360204A13704C
:10227400204B5A5C32435A545A5C2A435A548022A3
:10228400D2039A615722985C30439854985C28434F
:10229400985480203B2500049861585D07000F2066
:1022A40087433E435E555E5D30402026304358559B
:1022B4000125585C28435854995C2943995420219A
:1022C4000D4A136A0B4313620C4A0D4B5380537827
:1022D400DB09FCD1002C00D10A4C2000FFF788FF59
:1022E400F8BDC046680000206C000020B00000204B
:1022F400640000200044004100040040000C004041
:1023040017400000A08601007F22034B02401A7090
:102314000022024B1A60704764000020B0000020C5
:1023240070B50C00002818D0002916D00C4B0025DD
:102334009C461A680B4E0023411E06E00133C85C1C
:1023440001320125B0549C4203D03F2AF6D9002D16
:1023540001D061460A60180070BD0023FBE7C04647
:10236400B0000020B300002030B5264B1A78264B6D
:1023740052005A6205E05A8BD20738D45A8B52075E
:1023840035D41A7ED207F6D5204B1C689C46002C07
:1023940012D028251E491C4B64180A785A5505E0AA
:1023A4005A8BD20718D45A8B520715D41A7ED207E7
:1023B400F6D50131A142F0D1002808D0C023124A39
:1023C4009B0251680B435360D3695B07FCD4002321
:1023D40062460020136030BDC0230B4A9B02516843
:1023E4000B435360D3695B07FCD40320F3E7C0239A
:1023F400054A9B0251680B435360D3695B07FCD4C5
:102404000220E8E76400002000140042B00000202D
:10241400B4000020F0B5DE4657464E46454600233C
:10242400E0B583B00092484A400013600192474AE5
:1024340013600122FF3303401343454A536203E010
:10244400538BDB0700D573E0107E8007F8D5002995
:102454004FD00D0040295BD8282294463D4A0023E2
:102464009246802200219B46394B92026E1E914671
:1024740001248046384F5A688E4222D93748024098
:1024840050465A605A6802404846024358465A60C9
:10249400DA695207FCD41A7E920705D45A8BD20704
:1024A40038D41A7E9207F9D562469A5C7A5401317F
:1024B400AC421BD24246D20F934601345A688E4234
:1024C400DCD88020C00202435A60009A002A18D047
:1024D400C0205A68800202435A60DA695207FCD469
:1024E40062469A5C7A540131AC42E3D32100019BE9
:1024F4001C60080003B0F0BCBB46B246A946A04627
:10250400F0BD50465A680240484602435A60E4E728
:102514004025A1E7002801D0019B1960C0230C4A83
:102524009B02506803435360D3695B07FCD4E0E724
:10253400C02351689B020B435360054AD3695B0770
:10254400FCD40021D5E7C0466C00002068000020C0
:1025540000140042FFFFFCFF70000020FFFFFBFFA0
:10256400064A0749136809688B4204D2591C116052
:10257400044AD05C704701204042FBE76800002019
:102584006C00002070000020802130B5244A136ABA
:102594000B431362234A244B53805378DB09FCD149
:1025A400224B53801F4A5378DB09FCD103254A216F
:1025B4000124AC461E4B35205A5C654622435A54CE
:1025C4000F22195C9143294319544B215D5C2C4320
:1025D4005C545C5C250002242C435C54195C0A4066
:1025E40030210A4301211A54124A13680B43136021
:1025F400D369DB07FCD4104B1360C0239B025360E8
:102604000C4AD3695B07FCD402210C4B93811368F9
:102614000B431360074AD3699B07FCD430BDC04603
:1026240000040040000C004019400000134000006A
:1026340000440041001C0042040031402BF6FFFF1F
:10264400024A137EDB07FCD510857047001C00424C
:1026540010B500F0DDFA092303600120404210BDEB
:1026640080239B0100204B607047C04601207047C7
:102674000020704710B500F0CBFA16230360012048
:10268400404210BD013870B51600012817D80C005F
:102694008D18002A05D110E00134FFF7D1FFAC42B8
:1026A4000BD020780A28F7D10330FFF7C9FF207830
:1026B4000134FFF7C5FFAC42F3D1300070BD0120F7
:1026C4004042FBE70300024A1068C31813607047D6
:1026D40000000020014B024A1A60704704000020E9
:1026E40040420F0030BFFDE710B5FFF7F3FF0F487E
:1026F4000F4B984207D2013B1A1A920801320D4936
:10270400920000F08EFA0C480C4B984207D2013B21
:102714001A1A920801320021920000F023FA084BA1
:10272400084A9360FFF74CFD30BFFDE7000000202E
:1027340064000020103A00006400002040020020E1
:102744000020000000ED00E0002310B50400036049
:102754004360836081814366C28103614361836115
:10276400190008225C3000F0FDF90B4B246263620F
:102774000A4BA3620A4BE3620A4B23630A4B9C4253
:1027840005D00A4B9C4202D0094B9C4203D1200045
:10279400583000F043FA10BD95290000BD2900000F
:1027A400F5290000212A0000F40000205C0100202B
:1027B400C401002010B5034A0349044800F06CF832
:1027C40010BDC04608000020452F0000180000205E
:1027D40041680B4B10B50400994201D000F0B0FBE6
:1027E400A168084B994202D0200000F0A9FBE168DF
:1027F400054B994202D0200000F0A2FB10BDC04658
:10280400F40000205C010020C401002010B5094B35
:10281400094A04211A6009480022FFF795FF0122A2
:1028240009210748FFF790FF022212210548FFF70C
:102834008BFF10BD2C020020B9270000F4000020FB
:102844005C010020C401002010B5024800F0E7F943
:1028540010BDC0463502002010B5024800F0E0F972
:1028640010BDC0463502002010B50400FFF7ECFF90
:10287400236A002B02D0FFF7EFFF10BD044B236245
:10288400044B1B68002BF6D1FFF7C0FFF3E7C046EB
:10289400D52700002C020020F7B514000026009074
:1028A4000191A5686768013F04D52468002CF8D11C
:1028B4003000FEBDAB89012B08D90E22AB5E01337B
:1028C40004D029000098019B984706436835EAE73D
:1028D400036A70B505000E008468002B01D1FFF770
:1028E400C3FF636EDB0705D4A3899B0502D4A06DE7
:1028F40000F095F9A3891B0702D52369002B1FD18A
:102904002100280000F0D2F8002819D001256D42DA
:10291400636EDB0705D4A3899B0502D4A06D00F088
:102924007FF9280070BD0136A360002B04DAA26988
:10293400934216DB0A2914D023685A1C22601970AA
:10294400A3683178013B0029EDD1A360002B0FDA95
:10295400220028000A3100F067F80130D6D00A2599
:10296400D6E72200280000F05FF80130E8D1CDE777
:1029740023685A1C22600A221A70F0E710B5034B30
:1029840001001868FFF7A4FF10BDC0461400002022
:1029940070B50C000E25495F00F012F9002803DB26
:1029A400636D1B18636570BDA389024A1340A3813C
:1029B400F9E7C046FFEFFFFFF8B51F008B8905005C
:1029C4000C001600DB0505D50E23C95E0022022388
:1029D40000F0E2F8A389054A28001340A3813200DD
:1029E4000E23E15E3B0000F0FFF8F8BDFFEFFFFFB0
:1029F40070B50C000E25495F00F0CEF80C22A35EE2
:102A0400421C03D1044A1340A38170BD80225201A9
:102A14001343A3816065F8E7FFEFFFFF10B50E23B2
:102A2400C95E00F0A7F810BDF8B506000D0014004B
:102A3400002804D0036A002B01D1FFF715FFA36916
:102A4400A360A3891B0702D52369002B09D12100A8
:102A5400300000F02BF8002803D001256D42280037
:102A6400F8BD23692068EFB2C01A6369EDB28342EE
:102A740005DC2100300000F063FA0028EDD1A368E2
:102A84000130013BA36023685A1C22601F706369F4
:102A9400834204D0A389DB07E1D50A2DDFD12100CD
:102AA400300000F04DFA0028D9D0D6E72C4B70B591
:102AB400050018680C00002804D0036A002B01D11B
:102AC400FFF7D2FE0C22A35E1A0722D4DA0607D43B
:102AD40009222A60373201201343A381404270BD8A
:102AE4005A0713D5616B002908D023004433994257
:102AF40002D0280000F09EF8002363632422A389F7
:102B040093430022626022691BB2226008221343AD
:102B1400A3812269002A0AD1A0218022890092007F
:102B24000B40934203D02100280000F05FFA0C23ED
:102B3400E25E012113000B400A420CD00023A36083
:102B440063695B42A361002023698342C7D11306F2
:102B5400C5D54023BFE7910700D46369A360F2E7BA
:102B64001400002003008218934200D170471970AA
:102B74000133F9E7002370B5064D040008002B600B
:102B8400FFF766FD431C03D12B68002B00D02360A4
:102B940070BDC0463002002070B50400080011006A
:102BA4001A000023054D2B60FFF762FD431C03D17F
:102BB4002B68002B00D0236070BDC046300200207B
:102BC40070B50400080011001A000023054D2B60A5
:102BD400FFF750FD431C03D12B68002B00D023606A
:102BE40070BDC0463002002070B50400080011001A
:102BF4001A000023054D2B60FFF744FD431C03D14D
:102C04002B68002B00D0236070BDC046300200202A
:102C1400014B18687047C046140000207047704785
:102C24007047002310B59A4200D110BDCC5CC45447
:102C34000133F8E770B505000C1E10D0043C23687E
:102C4400002B00DAE418280000F0E0F81D4A1368AD
:102C5400002B05D163601460280000F0DFF870BD1C
:102C6400A34208D9206821188B42F3D119685B6804
:102C740009182160EEE71A005B68002B01D0A3421B
:102C8400F9D911685018A0420BD1206809185018BE
:102C940011608342E0D118685B6841181160536089
:102CA400DAE7A04202D90C232B60D5E7206821186B
:102CB4008B4203D119685B68091821606360546012
:102CC400CAE7C0463C02002070B50F4E0D003168C3
:102CD4000400002902D100F0E7F930602900200047
:102CE40000F0E2F9431C03D101256D42280070BDB8
:102CF4000323C51C9D43A842F8D0291A200000F0E4
:102D0400D3F90130F2D1EFE738020020F7B50322FE
:102D1400CB1C9343083305001F000C2B34D20C2723
:102D2400B94233D8280000F071F8374E33681C00DC
:102D3400002C2FD139002800FFF7C6FF0400431CE4
:102D44005FD134680094009B002B4AD1002C52D0F0
:102D540023682800E3180099019300F0A5F9019B6A
:102D6400834248D123682800FF1A3900FFF7ACFFDB
:102D7400013040D02368DB19236033685A68002A85
:102D840033D1009B336019E0002BC9DA0C232B608C
:102D94000020FEBD2168C91B20D40B290AD9E219E1
:102DA4002760A34204D1326063681160536005E078
:102DB4005A60F9E76268A3420ED13260280000F03D
:102DC4002DF8200007220B30231D9043C21A98428D
:102DD400DFD01B1AA350DCE75A60EFE723006468D6
:102DE400A6E7009C63680093ADE71A005B68A34202
:102DF400FBD10023DAE70C2328002B6000F00EF847
:102E0400C6E70760DAE7C0463C02002010B5024876
:102E1400FFF705FF10BDC0463402002010B502487C
:102E2400FFF7FEFE10BDC04634020020F7B50C22A9
:102E34008B5E05000C001A075AD44A68002A02DC8B
:102E44000A6C002A4FDDE76A002F4CD00022802153
:102E54002E682A601A0049010A400B4234D0626D80
:102E6400A3895B0706D56368D21A636B002B01D074
:102E7400236CD21A00232800E76A216AB8470C237E
:102E8400E25E431C06D129681D292ED82B4BCB406A
:102E9400DB072AD50023636023692360D20405D5A8
:102EA400431C02D12B68002B00D16065616B2E603E
:102EB400002918D023004433994202D02800FFF798
:102EC400B9FE002363630EE001232800216AB8479A
:102ED4000200431CC4D12B68002BC1D01D2B01D090
:102EE400162B1DD12E60002021E0402313431BE04C
:102EF4000E69002EF7D00F680E60BA1B01920022F3
:102F04009B0700D14A69A260019B002BEBDDA36AF9
:102F140032001F002800019B216AB847002807DC03
:102F24004023A28913431BB20120A3814042FEBD6A
:102F3400019B36181B1A0193E6E7C04601004020A6
:102F44000B6970B505000C00002B02D10025280088
:102F540070BD002804D0036A002B01D1FFF784FC64
:102F64000C22A35E002BF1D0626ED20704D49B0521
:102F740002D4A06DFFF753FE28002100FFF756FF8F
:102F8400636E0500DB07E2D4A3899B05DFD4A06D43
:102F9400FFF746FEDBE70000F0B50E001D000E2330
:102FA400C95E140097B000290CDAB289802311009D
:102FB40019401A4214D18023DB00002029602360C9
:102FC40017B0F0BD6A4600F04BF80028EDDBF023A3
:102FD40001991B021940044BC9184B425941EAE7B5
:102FE40000214023E9E7C04600E0FFFFF7B50226D1
:102FF4008B8905000C00334206D02300473323603D
:10300400236101236361F7BD6A4601ABFFF7C4FF87
:10301400009F28003900FFF779FE0C22A35E0028E8
:1030240006D19A05EFD4032293431E43A681E4E715
:1030340080221343A381019B206020616761002BE0
:10304400E1D028000E23E15E00F01CF80028DAD05D
:103054000323A2899A43023B1343A381D3E70000CD
:10306400002370B5064D0400080011002B60FFF723
:10307400F7FA431C03D12B68002B00D0236070BDEA
:1030840030020020002370B5064D040008002B60B8
:10309400FFF7ECFA431C03D12B68002B00D023600C
:1030A40070BDC04630020020002370B5064D0400F8
:1030B40008002B60FFF706FB431C03D12B68002B91
:1030C40000D0236070BDC0463002002000224308B7
:1030D4008B4274D303098B425FD3030A8B4244D3DC
:1030E400030B8B4228D3030C8B420DD3FF2209021E
:1030F40012BA030C8B4202D31212090265D0030BDD
:103104008B4219D300E0090AC30B8B4201D3CB03D2
:10311400C01A5241830B8B4201D38B03C01A524114
:10312400430B8B4201D34B03C01A5241030B8B4216
:1031340001D30B03C01A5241C30A8B4201D3CB0201
:10314400C01A5241830A8B4201D38B02C01A5241E6
:10315400430A8B4201D34B02C01A5241030A8B42E9
:1031640001D30B02C01A5241CDD2C3098B4201D301
:10317400CB01C01A524183098B4201D38B01C01A7F
:10318400524143098B4201D34B01C01A52410309F6
:103194008B4201D30B01C01A5241C3088B4201D3A5
:1031A400CB00C01A524183088B4201D38B00C01A52
:1031B400524143088B4201D34B00C01A5241411A79
:1031C40000D20146524110467047FFE701B5002086
:1031D40000F006F802BDC0460029F7D076E7704734
:1031E4007047C046F0B54646D6464F464402C0B581
:1031F400C30F460098460D1C640A360E00D1CBE07E
:10320400FF2E6ED08023E400DB041C430023994688
:103214009A467F3E6F026B007F0A1B0EED0F002B58
:103224006DD0FF2B00D1A6E07F3BF6184B460A2B4E
:1032340000DD82E08023FF00DB041F4343466B4034
:1032440098464B460022022B0FDD494601238B4052
:10325400A621C9000B4200D06FE0902189000B42E7
:1032640000D0D3E08821194264D1200C2404240C1A
:1032740021003B0C3F043F0C79435C4347435843D4
:10328400E4190B0C1B199F4202D9802252028018A8
:1032940009041A04090C52189401611E8C411B0C78
:1032A400920E1B1814439B011C431B0100D5CDE057
:1032B40030007F30002800DCAEE063070BD00F2322
:1032C40032002340042B06D00434230103D580327A
:1032D4001000684B1C40FE2866DCA3015B0AC0B2E8
:1032E4001EE0002C00D08BE008239946063B6F02B9
:1032F4009A466B007F0A1B0EED0F002B91D1002F15
:1033040061D14A4601231A4391460A2A15DC4346F1
:103314006B4098464B460122022B96DC002000238A
:10332400C00518434346DD072843E0BCBA46B1460E
:10333400A846F0BDA8463C0092465346022B33D023
:10334400032B11D0012BE9D030008030721C0028EF
:1033540063DD6307B9D00F232340042BB4D1B4E752
:103364000F2A78D0A8463C008023DB0323435B026A
:10337400FF205B0AD4E7FF36002F2FD102234A46F1
:1033840013430A2BD9DC42466A4090464A46002A37
:103394000AD09946022258E7002C08D10423994602
:1033A400033B00269A4635E7FF200023B8E72000B8
:1033B40000F0EEFA7626431F9C400023764299469D
:1033C4009A46361A26E7380000F0E2FA4B46361AD7
:1033D400763E0A2BB1DC053887402FE703234A46A3
:1033E4001A4313000A2ABBDC42466A409046012273
:1033F4009A40882113000322194200D135E799E746
:103404000C239946093BFF269A4603E70023984676
:103414008023FF20DB0383E7320003001A3300DA42
:103424007CE79E320123210094401B1AD940621E7E
:1034340094410C43630704D00F232340042B00D092
:103444000434630111D50120002369E701236208D4
:103454001C40144378E78023DB031C4284D01F42C2
:1034640082D1A846FF203B435AE7A30100205B0A10
:1034740056E7C046FFFFFFF7F0B5C64647027B0A92
:103484004A0245009C46C40F530A4800984600B5BA
:103494002D0EBF09000ECE0F9209FF2800D171E056
:1034A40001235E402B1AB4423CD0002B00DC9CE18B
:1034B400002800D1A3E0FF2D00D18BE08021C904B6
:1034C4000A431B2B00DCFBE0013F7B0100D47BE0C3
:1034D40001277F42BF01B9090E00080000F058FA25
:1034E400330005388340854200DCD2E0B44F2D1A06
:1034F4001F405A0700D1F6E00F221340042B00D1DD
:10350400F1E004377B0100D4EDE0681CFE2D00D00F
:1035140090E0FF200022C0051043E407204380BC54
:10352400B846F0BD002B00DC77E100286FD1002AFB
:103534004CD0591E012B00D146E1FF2B4AD01B2948
:103544006ADC0B0011002020D940C31A9A40531E94
:103554009A410A43BF188023DB041F4200D1BBE019
:103564000135FF2DD5D0974A790811400122174023
:103574000F437A0700D09AE01F42C6D1FB089C464D
:103584002B004DE02B00FF3B002A2ED101214E40A1
:10359400B44200D1B4E0002B50D0002D00D0EAE0BA
:1035A400FF23002F00D1FAE0591E012B00D15CE16A
:1035B400FF2B00D13DE11B2900DC22E1571E340022
:1035C40005007B0100D583E72B000437FA089446F5
:1035D400FF2B25D16346002B9BD080226346D20368
:1035E4001A435202FF20520A95E7B44200D1A4E0E4
:1035F400002B23D0002DD3D0C4463400EDE7002A9D
:10360400E4D0012B39D0FF2BE4D0013B59E7FF2D47
:10361400E0D01B2B00DCA6E00537FB089C462B0002
:1036240062465202520AD8B275E701203A007B0181
:1036340000D43FE1C0B2BA01520A6CE7FE216B1C10
:10364400194252D1002D00D0ACE0002F00D11AE174
:10365400002A00D1F4E08021BB1AC9040B4200D136
:103664003CE10124D71B3440002F46D001200F42F7
:10367400E1D1FB089C460023D2E7BF1A7A0100D4AB
:10368400DAE0BD01A80900F083F9AB0905388340ED
:1036940001252022401B0130121A1F009340C7400D
:1036A4005A1E93411F4328D000257B07BDD00F230A
:1036B4003B40042B00D024E77B0100D525E75DE7E0
:1036C40011002020D940C31A9A40531E9A410A433C
:1036D400BF1A7B0100D5FDE67B0704D00F233B40D6
:1036E400042B00D00DE72B0070E7BB1A19005B0117
:1036F40062D4002900D0EFE60024002000220AE76B
:10370400002B1CD0002D00D003E7FF23002F47D04F
:10371400591E012B58D0FF2B00D18BE01B2900DD53
:1037240090E00B0039002025D940EB1A9F407B1E06
:103734009F410F430500BF180DE7002B17D1FE2151
:103744006B1C19421BD1002D00D080E0002F00D14A
:10375400AEE0002A74D0BA18530100D4AAE0920152
:103764000120520AD7E68021C9040A43EAE6002D63
:10377400CBD0C44631E73400FF200022CBE6FF2B38
:1037840000D1C6E6BA185208510705D00F21171DFB
:103794001140042900D019E7D208944640E73400C8
:1037A400170013E7002F75D1002A00D09DE0802276
:1037B4000024FF20D203AEE60124D11B34408BE663
:1037C400FFFFFFFBFFFFFF7DBB185A0100D494E00D
:1037D4004D4A5B081A40590700D192E00F210B4073
:1037E400042B6ED00223171DF0E6002B00D125E731
:1037F400411B0B00002D00D1D3E68023DB041F43C3
:10380400D9E63B002024CB40611A8F40791E8F41BA
:103814001F4334000500D71B5BE7002B8FD0431BED
:10382400002D00D172E71B2B0CDC8021C9040F434F
:1038340078E73400C446CDE6FB089C460123EFE656
:103844000023EDE60532D3089C460300E8E6002F8A
:10385400F0D0002A37D08023DB039C4500D2BCE69D
:10386400984500D3B9E6C446B7E6D31B5A0130D510
:103874009B019C09200000F08BF82300053883404D
:103884003400012505E7002A18D001240023C4468A
:103894003440C5E6002A16D08023DB039C4500D2C1
:1038A4009BE6984500D398E60124C446344094E648
:1038B400002A04D0D3089C460023B1E6002400204B
:1038C40029E6023B68E780226346D203FF201A43BD
:1038D40021E6DB089C4634000123A1E6002B00D13D
:1038E4000AE7DB089C4600239AE68022434601242B
:1038F400D203FF201A4334400DE6DB089C46012323
:103904008EE6022348E7C046FFFFFF7D10B50400A2
:103914000020002C0ED0200000F03AF803009E2076
:10392400C01A072B09DD082B2CD0083B9C406402ED
:10393400640AC0B2C005204310BD042B16DD052B5C
:1039440001D05A1F9440114A224061070AD00F2126
:103954002140042906D00432510103D59F200B498C
:10396400C01A0A409201540AC0B2E3E71A002100C7
:103974001B3291400A00511E8A410521C91ACC40CC
:103984001443E0E764029620640AD3E7FFFFFFFBD9
:103994001C2101231B04984201D3000C10391B0A7B
:1039A400984201D3000A08391B09984201D300093F
:1039B400043902A2105C40187047C0460403020296
:1039C400010101010000000000000000AC33000010
:1039D40048656C6C6F2066726F6D20466561746813
:1039E4006572204D30204031313532303020384E30
:1039F40031000000F8B5C046F8BC08BC9E467047CC
:0C3A0400F8B5C046F8BC08BC9E467047F0
:103A10004002002040420F000000000003000000B0
:103A2000F40000201800002000000000F400002036
:103A30005C010020C4010020000000000000000024
:103A40000000000000000000000000000000000076
:103A50000000000000000000000000000000000066
:103A60000000000000000000000000000000000056
:043A70000000000052
:04000003000026EDE6
:00000001FF
