:10200000008000201D22000019220000192200007B
:1020100000000000000000000000000000000000C0
:102020000000000000000000000000001922000075
:10203000000000000000000019220000192200002A
:1020400019220000192200001922000019220000A4
:102050001922000019220000192200001922000094
:102060001922000019220000192200001922000084
:102070001922000019220000192200001922000074
:1020800019220000B52000001922000019220000CA
:102090001922000019220000192200001922000054
:1020A0001922000019220000192200001922000044
:0420B00019220000F1
:1020B4000122164B1649174810B5DA620A880368DC
:1020C40092B2002B16DD144C131CA24208D808331C
:1020D400124A9BB2934209D00C4A0B80536710BD3D
:1020E400231C08330D4A9BB29342F5D1012252427C
:1020F4000260F1E7131C082A00D20823083B9BB2B4
:10210400002BE9D101220260E6E7C0460028004224
:102114000800002000000020570900005F090000AB
:1021240010B500F06FF880232D4ADB00116A0B43D1
:1021340013622C4A5378DB09FCD12B4B5380294A78
:102144005378DB09FCD151210120284A535C034315
:1021540053540F231939505C034040200343535414
:10216400234A373913680B4313609368DB07D90F8D
:10217400002BFAD111601E4A9368002BFCD1023364
:10218400D3631B4A93685B06FCD41A4B1364184A46
:1021940093681B06FCD4184B1B889BB29364144AA7
:1021A40093689B05FCD40121C424936AA4000B43C7
:1021B4009362124B124918590840C0210902014385
:1021C4001951802189021960022113680B4313609D
:1021D400074A93689B07FCD430BF30BFFCE7C04676
:1021E40000040040000C00401B400000004400417B
:1021F400002800425F0900000800002000E100E020
:10220400FF00FFFF014B024A1A60704704000020E0
:1022140040420F0030BFFDE710B5FFF7F3FF0F4852
:102224000F4B984207D2013B1A1A920801320D490A
:10223400920000F029F80C480C4B984207D2013B5D
:102244001A1A920801320021920000F015F8084B86
:10225400084A9360FFF764FF30BFFDE700000020E9
:1022640008000020B8220000080000200A00002016
:102274000020000000ED00E003008218934200D12A
:10228400704719700133F9E7002310B59A4200D161
:1022940010BDCC5CC4540133F8E70000F8B5C04667
:1022A400F8BC08BC9E467047F8B5C046F8BC08BCEC
:0422B4009E4670478B
:0822B8000100000040420F008C
:040000030000221DBA
:00000001FF
